:020000022000DC
:1060000000000120396202009162020093620200E6
:10601000956202009762020099620200000000008F
:106020000000000000000000000000009B62020071
:106030009D620200000000009F620200A162020057
:10604000A1940200A762020049990200D99A0200B5
:10605000AD620200AF620200C597020029A00200F3
:10606000D9A10200B7620200B9620200BB6202005D
:10607000BD620200BF620200C1620200C362020090
:10608000C56202008D6D0200C9620200CB6202008F
:10609000296E0200CF620200A9FD0200D362020055
:1060A000D5620200D7620200EDA10200DB620200AD
:1060B000DD620200DF620200A3620200A36202004E
:1060C000E1620200E3620200E5620200E7620200B0
:0C60D000E9620200EB620200ED620200D7
:1060DC00354936480A1A02D0072291438D46344975
:1060EC0034480A1A06D00722914381F30988022208
:1060FC0082F3148830483149314A00F044F8314871
:10610C003149324A00F03FF831483249324A00F006
:10611C003AF832483249334A00F035F832483349BC
:10612C00334A00F030F833483349344A00F02BF846
:10613C0033483449344A00F026F8344834490022B4
:10614C0000F02CF833483449002200F027F833488B
:10615C003349091A082902DB002202604160314AE6
:10616C0090471F481F49884205D00268043003B489
:10617C00904703BCF7E700208646EC460020002140
:10618C00294A9047FEE7884207D0521A05D0037877
:10619C0001300B700131013AF9D17047884202D0BD
:1061AC0002700130FAE770470000012000E0002087
:1061BC00000001200000012028290300802200207B
:1061CC0044230020F0620200F06202005415030028
:1061DC00282903008022002080220020EC160300D6
:1061EC00EC160300EC160300EC160300EC1603008F
:1061FC00EC160300EC160300EC1603002829030030
:10620C00EC290300442300204423002044230020D5
:10621C008035002080350020843500208435002016
:10622C00845500205D620200C1A802000F484FF0A7
:10623C000701884385460E4880470E48016841F4A3
:10624C0070010160BFF34F8FBFF36F8FFFF740BF3B
:10625C0009480A490A4A884207D0521A05D00378DD
:10626C0001300B700131013AF9D170470000012067
:10627C00D98F020088ED00E08C160300202200204C
:10628C0080220020FEE7FEE7FEE7FEE7FEE7FEE7E2
:10629C00FEE7FEE7FEE7FEE7FEE7FEE7FEE7FEE7CA
:1062AC00FEE7FEE7FEE7FEE7FEE7FEE7FEE7FEE7BA
:1062BC00FEE7FEE7FEE7FEE7FEE7FEE7FEE7FEE7AA
:1062CC00FEE7FEE7FEE7FEE7FEE7FEE7FEE7FEE79A
:1062DC00FEE7FEE7FEE7FEE7FEE7FEE7FEE7FEE78A
:0462EC00FEE700BF0A
:1062F00000487047783500207047000007B5044B10
:106300000093044A402300F032F803B05DF804FB28
:1063100019630200452300202DE9F84388461446FE
:10632000B2B10F4B0F4E0325002743F0010922465F
:1063300008EB0701002006F02BF90744241A48B99E
:1063400033782BB14FF47A40C847013D02D1357004
:10635000BDE8F88301233370002CE8D1F8E700BFD3
:10636000F016030044230020704706F065B9F0B52D
:1063700095B01D46164608460C4602F028FD1A9BAD
:106380000D93CDE9086500252B46082205A9204676
:106390000A958DF82C500C9502F055FD079B029341
:1063A000069B03939DF814308DF8115003F00302FF
:1063B000012A1DD1BDF81420059DC3F3C203C2F309
:1063C00083168DF81030B20008230EA9204602F083
:1063D0003AFDC5F3952508AB0093324602AB0EA9F2
:1063E000284600F069FB204602F0F5FC15B0F0BD30
:1063F000022AF8D1BDF81650C3F3C203C5F38915BC
:106400008DF810300827082D2E4628BF08263B4659
:1064100032460EA9204602F016FDAD1B08AB02AABB
:1064200031460EA8374400F0ABFB002DEBD1DAE784
:1064300010B5054CFFF799FF0421204600F0A6FA9D
:106440000123637210BD00BF80220020037813F087
:10645000030F03F0040202D012B910467047B2B124
:1064600003F00303012B03D0022B09D00120704756
:106470000A6800880232C0F3831002440A60F5E71C
:106480000B684288023303EB92130B60EEE70B6854
:106490004288013303EB92130288F4E72DE9F04FB1
:1064A00087B000230446861C0DF107000F461546F1
:1064B0008DF8073000F0B0FE454801683960D0E93A
:1064C0000132134401335B1A824600F21C4700F587
:1064D000836900F21448B3421CD30020002D73D00E
:1064E00004F00F039B0143F0050363F30F00DAF898
:1064F0000020DAF808301340033316444AF823002A
:106500009DF80700CAF8006000F0AAFE012007B05D
:10651000BDE8F08F0121384601F00FFF484601F039
:1065200027FF404601F024FFDAF80400DAF808B04B
:10653000029000EA0B0003300AEB800002A9FFF78B
:1065400085FF029B50BB0BEA03020AEB820203F1B8
:10655000020CD2680392013303EA0B0B0AEB8B0B9C
:1065600002F00302012ADBF80C10CDF808C023D09A
:10657000022A16D08346404601F0FDFE10B1029B70
:10658000CAF804305946384601F0D7FEDAE901234B
:106590001344DAF8002001339B1A9CE70BEA03004E
:1065A000C9E7BDF80E30C3F3891303334FEA114B2B
:1065B0000CEB93030293DEE7BDF80C30C3F38313B7
:1065C0004FEA114B6344F5E7A40544F006008EE75B
:1065D0005824002008B50E4B0E48FF229A60002276
:1065E000C3F81824C3E90022C3F8142483F8202434
:1065F00002F0A6FB38B9084A084B09499B1ADB0888
:1066000002469A4200D108BD21F822200132F8E763
:10661000582400204C160300B41503004C16030048
:106620002022002030B50A4C71B10A4A0A49121BD7
:10663000D20800239A4201D1002030BD31F8235006
:10664000854202D00133F5E7034654F83300F4E7FE
:10665000B41503004C16030022220020094B013917
:1066600003EBC000032909D8DFE801F00A020406A1
:1066700004207047007970474079704700207047C8
:1066800002207047B4150300034BD3E90030C31A4E
:1066900058425841704700BF582400202DE9F0436C
:1066A00087B0FFF7F1FF0646002840F0F3807A4DEF
:1066B000C5F81804BFF34F8F6B68AC680293234092
:1066C000033305EB830002A9FFF7C0FE029B0746D8
:1066D000002861D104EA0302991C013305EB820210
:1066E000234005EB8303D268DB68049302F00303C5
:1066F000022B0392029162D1BDF80E306748C3F3BA
:106700008918B8F1500FC14628BF4FF0500969F3FE
:106710008F1309F10801ADF80E3002F029FB06468F
:10672000002800F0A58002F052FB3B46082203A996
:10673000304602F05FFB029924EA01020132B9EB14
:10674000820F4FEA820333D95FFA89F963B321409C
:10675000DCB2A9EB040903315FFA89F7A146504C7A
:1067600005EB810108234A46304602F043FB34B171
:1067700009F108033A462146304602F03BFB029BF2
:1067800008F1030803EB98030293D5F81834002BA3
:1067900048D1D5F8104456E02A689A428FD86A60EA
:1067A000304607B0BDE8F0833D491C461F46D9E797
:1067B0000C40E11C08234A4605EB8101DCE7012B74
:1067C00056D1BDF80C303548C3F38311062928BFD4
:1067D000062161F3891302318900ADF80C3002F013
:1067E000C7FA0646002843D002F0F1FA3B460822D9
:1067F00003A9304602F0FEFABDF80C20C2F3831262
:10680000BB00974203F10803BFD202994A1C214002
:106810000331029205EB81010422304602F0EAFACC
:106820000137E9E7304602F0D6FAFFF72DFF80F096
:106830000100C6B2B4E7637A23B1236831461B680E
:10684000204698476468002CF5D1304602F0C3FA20
:106850000DF107008DF8074000F0DEFCD5F8183484
:106860000BB9029B6B609DF8070000F0F9FCDCE7B8
:10687000D5F8104444B90B4B0B491888000440F07C
:10688000020000F05FF8D0E7236820469B68984735
:106890006468EFE7002683E7582400204C160300C5
:1068A0006424002040220020041703002DE9F74F44
:1068B000224D04460F46924601A901221846D5F8FA
:1068C00008909B46FFF7EAFD20B3019E4FF00008B9
:1068D000B21CD84508EB020126D11948002101F06D
:1068E000E5FC80F31000000440EA1440E400731C4F
:1068F00004F0380403EA090306EA090644F0010437
:1069000005EB8303033644EA881444EA8724D860FD
:1069100045F8264095F820341BB1FFF7BFFE00284C
:10692000FBD103B0BDE8F08F09EA010105EB81015D
:106930005AF82830CB6008F10108CAE75824002033
:106940007428002000231A46FFF7B0BF07B50123C3
:10695000019201AAFFF7AAFF03B05DF804FB07B597
:10696000CDE9002302236A46FFF7A0FF03B05DF8DC
:1069700004FB1FB5CDE90123069B039301AA032362
:10698000FFF794FF05B05DF804FB00000F4930B538
:10699000D1F810440346002022463AB91872D1F8C3
:1069A000104444B9C1F810345A6030BD157A85429C
:1069B00005D05268F1E762685A606360F5E701301C
:1069C0000A28E9D14FF0FF30EFE700BF582400203C
:1069D000084A38B50123D2F8104482F820341D4605
:1069E00004B938BD2368657220465B6898476468BF
:1069F000F6E700BF5824002007B503460846197A79
:106A0000052911D05B7A2BB1094A0A49019001F09E
:106A100015FD01980849019001F010FD019803B09F
:106A20005DF804EB01F0FFBC002AF8D0F2E700BFEC
:106A30002C170300311703005117030030B5C3882A
:106A400085B004460D4633B1144A00921449154AE4
:106A5000284601F0F3FC217A05291DD0637A4BB159
:106A6000A088FFF7FBFD104B104953F82020284663
:106A700001F0E4FC227A0E4BA08853F82220039206
:106A80000021FFF7CFFD039A0A490346284605B0C7
:106A9000BDE8304001F0D2BC05B030BD2C1703007A
:106AA0003C17030034170300B81703003117030025
:106AB000DC170300541703002DE9F04385B01F468F
:106AC0000C9D002395F80C902B7306460C469046BF
:106AD00029463846FFF7B2FFB8F1060F09D8DFE8BC
:106AE00008F00412181F283340003146284601F0F0
:106AF000A5FC002229463846FFF77EFF85F80C905A
:106B000005B0BDE8F08322683146284601F096FCC6
:106B1000EFE7D4E900233146284601F08FFCE8E78F
:106B2000A36800933146D4E90023284601F086FC8F
:106B3000DFE7E3680193A36800933146D4E90023BB
:106B4000284601F07BFCD4E723690293E3680193B4
:106B5000A36800933146D4E90023284601F06EFC77
:106B6000C7E76369039323690293E3680193A3680A
:106B700000933146D4E90023284601F05FFCB8E7D2
:106B800008292DE9F74F80460E4617461C4639D88E
:106B9000002593F80C901D7319461046FFF74EFF21
:106BA000DFF880A0DFF880B0AE422ED918F80520BB
:106BB0005946204601F042FC0135082DF4D1184910
:106BC000DFF868A0DFF868B0204601F037FC002548
:106BD000AE421FD918F805200192104609F006FCB4
:106BE0000028019A594608BF2E22204601F026FCB3
:106BF0000135082DECD1012221463846FFF7FCFE75
:106C000084F80C9003B0BDE8F08F5146204601F0A7
:106C100015FCD1E75146204601F010FCE8E700BF23
:106C200068170300641703005E170300661703006C
:106C30006A1703001FB50021039001AA44F2010066
:106C4000CDE9011100F004F805B05DF804FB000087
:106C500010B572B6FFF7BCFEFFF720FD0028FBD190
:106C6000104C11492088000440F00100FFF76AFE33
:106C70000E4B1B68DB0700D500BE20880C490004C2
:106C800040F00200FFF75EFEBFF34F8F09490A4B49
:106C9000CA6802F4E0621343CB60BFF34F8F00BFBA
:106CA000FDE700BF40220020F0170300F0ED00E0F8
:106CB000FC17030000ED00E00400FA05094A5378D0
:106CC00091780133DBB2994208BF002311789942D1
:106CD0001FBF03705078182303FB002014BF04303B
:106CE000002070477C28002073B5054600240DF174
:106CF00007000E468DF8074000F08EFA0DF10600F1
:106D0000FFF7DCFF90B10670094B9DF80620456047
:106D10005A709DF8070000F0A3FA24B9054B4FF410
:106D20008012C3F80021204602B070BD0424F0E7B1
:106D30007C28002000E100E0024B4FF43C6043F06F
:106D4000010318471018030038B50C4B0C4C4FF4D6
:106D50000032C3F8802001254FF48033C4F8483353
:106D6000C4F808336560FFF7E7FF064BA560002411
:106D70001C60FFF7E1FF044B1C7038BD00E100E030
:106D8000001001409829002089290020F8B51F4BE8
:106D90001F491B680025C1F84051C1F84451C1F892
:106DA0004851C1F84C51C1F80051C1F804514BB3DE
:106DB000D1F8044517490968641A24F07F442F4626
:106DC0001A68A24209D8A41A15441A7CDE691AB1BD
:106DD000D3E905201F749047AEB90F4A0F4B1178C5
:106DE0001B788B4205D10133DBB2022B08BF002395
:106DF000137012780A4B43F822500A4B4FF480125A
:106E0000C3F80021F8BD3346DAE700BF9C29002013
:106E10000010014098290020952900209429002085
:106E20008C29002000E100E02DE9F04FA24AA3499F
:106E300013780978A24D994285B03CD00133DBB27A
:106E4000022B08BF002313709E4912789E4B0F68D7
:106E500053F822003B1823F07F4300220B602B687D
:106E600016461446944613B942B12B6006E01968E1
:106E700081420ED902B12B60091A196001272B68D3
:106E8000DFF84CA201934FF00008BEB9DFF848B21A
:106E900062E0401A0C44D968D3F81CE0C3F800C083
:106EA00031B13A1922F07F42C3E90121DE611E4669
:106EB00073460122D7E700263746E0E73446F669F5
:106EC000804A63681268DFF814C2A068991A21F03A
:106ED0007F41614500F2A8800144216001222274B3
:106EE0002A680023C4E90133E361002A40F0A58049
:106EF0002C60CAE79BF802105A1CD2B291428BF860
:106F0000002004BF00228BF80020182202FB03B3EC
:106F10002A6819799C68022977D0032900F08180BA
:106F2000012919D1207CB8B9D3E90312A2605A69AA
:106F3000E2609A69654BA2611B78002B0CBF0B467F
:106F400003466360BCE78C4200F094808946C969BF
:106F50000029F8D1002323749BF800309BF801200E
:106F60009A42C7D12B68B8F1000F04D1019A9A4216
:106F700001D1002F43D0002B79D0D3F800A0544D7D
:106F8000504BD5F804751C68DFF854813E1B98F807
:106F9000003026F07F4603369BB94FF48033C5F8A6
:106FA0004433C5F804334B4B4FF400324FF0010922
:106FB000C3F880211A60C5F80090FFF7BDFE88F87D
:106FC0000090B2452CBF5444A41924F07F44C5F866
:106FD0004045D5F80435DB1B23F07F43E41B033326
:106FE00024F07F44A3420AD9D5F80435C5F84035CA
:106FF000FFF7A2FE374B4FF40032C3F80021334BAA
:1070000000221A7005B0BDE8F08F114691469FE747
:107010001174D2690123002AFAD1002B9CD02A6076
:107020009AE700231946F6E7D31A23F07F438342F9
:1070300034BFC31A0023236050E7216813689942C4
:1070400013D8591A1160E26152E7091AD8691A4631
:1070500038B1034618688842F7D3401A18601846BA
:1070600013462160E061DC610FE71346F2E7FFF7AA
:107070006BFEC4E74C4511D1D3692B6073B9DFF8BF
:1070800044E00120CDE90212CAF80800CEF8003031
:107090000E4B1870FFF750FEDDE902120B68C9694C
:1070A000C9F81C1011B1086803440B602B689342A7
:1070B00018BF4FF001084DE79429002095290020C2
:1070C0009C290020982900208C2900208829002054
:1070D0000010014000E100E07C280020FEFF7F005E
:1070E0008929002008B5FFF72FFE104B00200B2246
:1070F00018809A700E4B18600E4B18700E4B18705B
:107100000E4B4FF48012E021C3F8802183F8141352
:107110001A6002F18042A2F56F22C2F8080583F8D6
:107120001113074BD2F804251A6008BD7C280020F3
:107130009C290020942900209529002000E100E0EE
:1071400098290020074B9B784BB132B128B10368D6
:10715000187C20B959745A6170470720704708207D
:10716000704700BF7C2800202DE9F743DFF88480BA
:1071700098F8023005460E461746ABB3A0B3042973
:1071800030D9436983B3437C0024012B0DF1070000
:107190000CBF8946A1468DF8074000F03DF80DF17F
:1071A0000600FFF78BFDD8B1012303700F4B45603C
:1071B000D3F80435C0E90497C0E902369DF80630DB
:1071C00088F801309DF8070000F04AF824B9084B10
:1071D0004FF48012C3F80021204603B0BDE8F083CD
:1071E0000424EFE70724F7E70824F5E7001001403F
:1071F00000E100E07C280020064A92783AB130B1E4
:10720000426922B1002202740221FFF76DBD0820FD
:10721000704700BF7C28002070B5EFF3108672B66F
:107220000C4A946801239CB993600B4B0B4DD3F827
:10723000801029401160C3F88050D3F88410516049
:107240004FF0FF32C3F88420047006B962B670BDF7
:107250000370FAE7A029002000E100E0FC06FFBD72
:10726000084B9A6810B55AB150B9EFF3108172B655
:10727000054A1C6814605C685460986001B962B685
:1072800010BD00BFA029002000E100E070B5064D50
:107290000646002455F8043B0BB1304698470134AC
:1072A000042CF7D170BD00BFB8290020033080B294
:1072B00040F2FD33984230B51FD8124B1A783AB9D4
:1072C0001C895D892C440444A4B2B4F5806F0AD3B0
:1072D0001A7DA2B99A8BDC8B2244024492B2B2F599
:1072E000806F0CD201220A801446142202FB043360
:1072F0005A8910445881002030BD0920FCE707203E
:10730000FAE700BFEC2900200B4A0C4B51881420EF
:1073100000FB0131CB6833B90420496810700122A9
:10732000074801F001BB07490523137002238B8036
:10733000012209680023F3E7D0290020EC2900206E
:107340006C220020A42A002007B5002305490093E1
:10735000054A09680548082301F062FA03B05DF8A0
:1073600004FB00BFA42A0020341803006C22002074
:1073700007B5002301460093034A0448082301F09F
:107380004FFA03B05DF804FB2C1803006C220020B8
:1073900013B500230C4600930146084A084804230D
:1073A00001F03EFA38B90749142303FB0414012302
:1073B000237402B010BD0E20FBE700BF28180300A5
:1073C0006C220020EC29002037B50A480A4B42689D
:1073D0009C88196853880325033305709BB20020ED
:1073E00000909B0001EB8401044801F019FA03B0FE
:1073F00030BD00BFD0290020A42A00206C2200202C
:1074000010B50146044800F085FE1C220446002108
:1074100009F077F8204610BD8C22002068B1026880
:10742000084B9A4209D14068074B984207D0013374
:10743000984214BF032001207047032070470020AA
:10744000704700BFDEC0ADDEFE011EF1438803338E
:1074500000EB8303994209D382884FF6FF739A4267
:1074600006D00088B0FA80F04009704702207047CB
:10747000012070472DE9F0410D460223154F2B8066
:10748000164600F5805100F108044FF001088C42C7
:107490000ED2236801330BD02046FFF7D7FF48B147
:1074A0000EB186F80080022809D14FF480632B804A
:1074B000BDE8F081A3683A68934200D93B602B880D
:1074C0006288033313442B806388033304EB830403
:1074D000DDE700BFE429002038B5144B14220D4627
:1074E00002FB00302B68446804F58051A3B15C882E
:1074F000033403EB84048C4215D22368013312D089
:107500002046FFF7A3FF012808D002280BD000284F
:10751000F1D12C60012038BD0834ECE763880333D7
:1075200004EB8304E7E70020F5E700BFEC29002027
:10753000426873B504460D4662B3234BD9688A424C
:1075400028D31B699A4225D812F0030322D11F4980
:107550000089098988421DD120689168884219D123
:107560001B494868824203D900F5805082420DD3FE
:1075700089698A420CD901F580518A4208D20122D8
:107580002A80B3FA83F0400902B070BD1A46F7E7CB
:107590000A23F6E700232B801E460196288801A9BE
:1075A000FFF79AFF30B92B8801339BB2012B2B8058
:1075B000F3D9E9E7019B226899689142EED16360B3
:1075C000024B1B892381DFE76C220020D029002099
:1075D000EC2900202DE9F8431C461C4B1B7806467D
:1075E0000F4615466BB372B36CB3DFF868804FF08B
:1075F0001409A388012B01D90A2020E009FB03F319
:1076000018F803302BB9A0882146FFF765FF20B991
:107610002060A3880133A380EBE723681EB199881B
:1076200032889142EFD11FB119883A889142EAD14C
:107630009A68C5E90023064B1B892B810020BDE811
:10764000F8830220FBE70520F9E700BFC8290020E6
:10765000D0290020EC29002008B5074B5888191DB7
:10766000FFF73AFF18B1BDE80840FFF7ADBEBDE82F
:107670000840FFF749BE00BFD02900202DE9F04F98
:10768000A14FDFF8A89289B00646B8463B6823B9F7
:107690009E48494600F078FD3860D8F800502978B7
:1076A0004B1E052B07D8DFE813F021007900790085
:1076B000090109015E010F241422002103A808F02A
:1076C00020FF41F61D539C4208BF0024D8F800302B
:1076D00004941A78013A052A00F2EF81DFE812F0EB
:1076E000DB01DF01FF010F021B02250226B1884BDF
:1076F00000225A600124DFE72B79032B1DD8DFE835
:1077000003F015022A3583490B78022B084619D05D
:107710000B7D022B4FF0010316D114225343C218E4
:107720000020C8545068FFF723FE03E001232B71AB
:10773000FFF70AFE002800F0BC80754B00225A605B
:107740000E24B9E70023E8E7714A13700023536061
:1077500041F61D54B0E770497048002302222B7196
:107760008A800968012201F0DFF8E3E76A4C00260D
:107770002E712068674DFFF7FBFD694BD4F800C000
:107780005A8814235343EA18EE5451682160A188A3
:10779000C2F804C011810222A280CBE7B5F814A080
:1077A000AA7DDFF870B1AEB1022AEB8806D91421A8
:1077B00001FB0AB1DA1C088902440A81142202FB87
:1077C0000ABAC3F57F43BAF80A20FD331344AAF876
:1077D0000A308FE7142303FB0AB318895C6804EBB3
:1077E0008004062A68D8DFE802F0274D35431D598A
:1077F000040041F61D54AA7DEB88022A06D9142103
:1078000001FB0AB1DA1C088902440A81142202FB36
:107810000ABAC3F57F43BAF80A20FD331344AAF825
:107820000A3049E73F48404900234360AB690360A1
:10783000FFF77EFE002859D00223AB75002300938A
:107840000423EA182146354800F0EAFF002830D02A
:107850000E24D0E72B69002B14BF03230123AB7543
:107860000023009305F10C02042304F10801EAE768
:107870000123AB750022EB8800922A699B0004F17A
:107880000C01E0E703290CBF05230623AB75002399
:107890000093042305F10802E118D4E70623AB7531
:1078A000214B19881F4B5868FFF772FD04460028CA
:1078B000A1D109B0BDE8F08F0F249CE7002E7FF422
:1078C00019AF2B79012B33D0022B3FF441AF002BA2
:1078D0007FF4F1AE02232B710DF10A01EB680393E3
:1078E00003A8CDE90466FFF723FE08B90A24E3E6FE
:1078F0000498BDF80A108388EB8003882B81FFF77A
:1079000047FD044625E000BFE82900208C22002026
:10791000C8290020EC290020A42A00206C22002085
:10792000D0290020AC290020B02A0020E029002026
:107930007F4B03AA3146A81DFFF74CFE7C4B044643
:1079400058B999880498FFF723FD04460A2C3FF4A0
:10795000FFAE002C7FF4B0AEABE7082231461846EC
:1079600008F0CFFDF2E7002E7FF4C4AE714B1A7B16
:10797000B2B11E731A78013A062A3FF69CAE01A1F5
:1079800051F822F02B7A0200517A02006F7A02003D
:10799000757A0200B77602007B7A02008D7A0200C7
:1079A0001A78072AE6D801A151F822F0CD79020011
:1079B0007579020075790200F3790200077A0200F6
:1079C000277A0200277A0200EF7902001A895A49C1
:1079D00001321A8100225A801A730A78B2FA82F2AE
:1079E00052099A720A7DB2FA82F25209DA720122BF
:1079F00007E0524958688A884088033202448A80E6
:107A000002221A70B6E74C4C5A884C49142505FBE3
:107A100002420868546850608888108102228A8077
:107A20000C600622EDE70722EBE79A7A32B9DA7AA0
:107A30008AB900221A705A805A6089E63E490022AB
:107A40009A72CA68002AF2D1097C0029EFD05A80C4
:107A5000FFF702FE55E70022DA72374A116A002961
:107A6000E7D192F82420002AE3D00122EFE7FFF7C4
:107A7000ABFC46E7FFF748FC43E72F4A5B8814213D
:107A800001FB03235868FFF773FC3AE700225A60B2
:107A9000FFF75AFC35E700238DF80C300DE001228A
:107AA0008DF80C201A89ADF818209A88DB680593A8
:107AB000ADF81A2000238DF81C3003A8FFF7E6FB71
:107AC000002649461E48C8F8006000F088FB1D48A3
:107AD000012100F03EFC00287FF4D8ADE9E6022247
:107AE0008DF80C201A89ADF818209A88ADF81A2064
:107AF000DA689B7D05929A1F53425341DBE70322CC
:107B00008DF80C20DA88ADF818201A89DB68ADF8FA
:107B10001A200593D1E704228DF80C20DB88ADF8FC
:107B200018300023ADF81A30F3E70523B4E700BF9F
:107B3000B42A0020D0290020EC290020A42A00200B
:107B40008C220020A02A00204068FFF797BD00008B
:107B500008B50548012100F0E4FB18B9BDE808406C
:107B6000FFF78CBD08BD00BFA02A00202DE9F3411E
:107B70009846354B1B7806460D46002B5BD00029F6
:107B80005BD009884FF6FF73994258D06B88002B61
:107B900055D06B689B0754D14AB92F890DF102016A
:107BA0003846FFF783FB30B102B0BDE8F08113889F
:107BB0005788ADF8023001A8FFF722FC044658B9F7
:107BC000BDF80230214A142101FB032358890338F0
:107BD000C01B58810820E7E780F8008000238375E8
:107BE000BDF8023083826B6803610121184800F000
:107BF000A4FB2B882381B8F1030F6B88A38004BFFB
:107C00000423A3754FF0000508BF3368E06008BF88
:107C1000A3611048E780658101A900F0A5FA36B19B
:107C2000E36833600C4B75601B89B5723381FFF7D5
:107C30008FFF0020B8E70220B6E70520B4E7042054
:107C4000B2E70320B0E700BFC8290020EC290020DC
:107C5000E42900208C220020D029002008B503460A
:107C600007480268042A08D00168064A42F8213011
:107C7000012100F062FB002008BD0C20FCE700BFE2
:107C8000AC2A0020B82900202DE9F04F14228BB037
:107C900000210DEB020008F034FC724A137803F067
:107CA000FF01CDE901123BB105A8FFF7EFFA00266D
:107CB00030460BB0BDE8F08F029B181D00F055FB5D
:107CC0000028F4D14FF010234FF080525B69116906
:107CD0005269654C581C08BF02FB01F323616349DC
:107CE000A3F5405300222046E36000F06DFD0394AD
:107CF00006460028DCD15E495E48DFF88491DFF853
:107D000084811C238C2200F0D0F9B24635464FF016
:107D1000030B3446039BDF68574438463946FFF768
:107D20007DFB01284AD0032815D0002835D1142125
:107D3000614308EB010208F80100576001F11002ED
:107D40000831424441443846FFF794FB45F00205B0
:107D50000134A4B221E007F580520868013074D1E3
:107D600004319142F9D1D9F800203AB90222012315
:107D7000C9F80070A9F8042001930CE014226243B2
:107D8000022008EB020108F802003B4A4F605480D1
:107D900001340881A4B245F001050AF5805ABAF50C
:107DA000405FB7D1BBF1010F98BF0025EDB2022DA6
:107DB00002D0062D20D045BB0B2679E7019B63B18D
:107DC0001422624308EB0201022008F80200013489
:107DD000D9F800204A600881A4B200222749C9F8D6
:107DE00000703846FFF746FBB9F80420022A0CBFA2
:107DF000042208221543D0E7029A0123137005A834
:107E000000235360FFF742FA52E704A8FFF7F8FA9D
:107E1000C8B10123013D03700A2D09D8DFE805F040
:107E200006080608070807080F110F000023037152
:107E300004A9104800F098F9FFF78AFE38E70323F9
:107E4000F5E70223F3E7082632E70BF1FF321FFACA
:107E500082FB1422624308EB02014F60032108F801
:107E6000021075E7C82900206C220020341A030094
:107E7000142A00208C220020D0290020A82A0020CB
:107E8000A42A0020EC29002073B50D460446C8B191
:107E9000C1B10DF10601FFF74BFBA8B10B4BBDF8CB
:107EA00006006668142202FB003001210C3000F04D
:107EB00044FA63682E600C336B600123A3720020C8
:107EC00002B070BD0520FBE70A20F9E7EC2900208D
:107ED00013B50446A8B10DF10601FFF729FB90B1D7
:107EE0000B4ABDF80630142101FB0323DA6862B1A6
:107EF000A27A52B1DA680020013ADA60A07202B0C8
:107F000010BD0520FBE70A20F9E70620F7E700BFD0
:107F1000EC2900200B4B1B7837B504460D4663B1A6
:107F200068B10DF106012846FFF7C0F918B9BDF890
:107F300006302380658003B030BD0220FBE70520BA
:107F4000F9E700BFC8290020104B1B7810B5B3B16A
:107F5000B8B10288022A16D80D494388142404FBBC
:107F600002129C1C51898C420DDAC3F57F43FD330C
:107F70000B445381002303804380184610BD022028
:107F8000FCE70520FAE70420F8E700BFC829002035
:107F9000EC29002002230022FFF7E8BD12B10223E2
:107FA000FFF7E4BD0520704718B103230022FFF757
:107FB000DDBD052070470000104B1B7813B504464B
:107FC000ABB14FF6FF73984213D001A8FFF718FA30
:107FD00088B10523037001230371C48001A90848F7
:107FE00000F0C2F8FFF7B4FD002002B010BD02207F
:107FF000FBE70420F9E70820F7E700BFC8290020C5
:108000008C2200200E4B1B7807B5A3B101A8FFF707
:10801000F7F990B10623037001A90A4800F0A4F80B
:10802000094B1A780AB101221A73FFF791FD00205B
:1080300003B05DF804FB0220FAE70820F8E700BF70
:10804000C82900208C220020D029002007B5ADF8D7
:108050000600ADF804100DF1060001A9FFF7BAFA09
:1080600003B05DF804FB07B51346ADF806000A46F9
:1080700000200DF10601FFF7ADFA03B05DF804FB37
:1080800007B51346ADF806000A460DF106000021BB
:10809000FFF7A0FA03B05DF804FB20B119B1036843
:1080A0000B60002070470520704710B561B1B2FB2E
:1080B000F3F403FB1424A4B244B9C0E900148460AF
:1080C0008281C381204610BD0E20FCE70920FAE71B
:1080D00082B050E8022FC188B2EB324F4FF000035C
:1080E00017BF92B241EA014142EA014104E042680D
:1080F000B2EB324F08BF012340E80212002AE8D158
:108100008DF807309DF80730002B0CBF11200020A0
:1081100002B0704737B550E8013F9DB2C48925448D
:108120008489A54228BF2D1B0489A54202BFBFF345
:108130002F8F002207E0C5EA030540E80154002C18
:10814000E9D14FF001028DF803200193019B9DF8C6
:1081500003200B6002F0FF0322B10B880068184473
:1081600003B030BD1846FBE70A884B889A4209D114
:1081700050E8012FC2EA024240E80123002BF7D168
:10818000012070470020704737B550E8023F1FFAC2
:10819000A3F5C488A54202BFBFF32F8F00220DE0D4
:1081A000C48925448489A54228BF2D1BC3EA0545FF
:1081B00040E80254002CE8D14FF001028DF8032072
:1081C0000193019B9DF803200B6002F0FF0322B195
:1081D0004B880068184403B030BD1846FBE70A8896
:1081E0004B889A4209D150E8022FC2EA224240E865
:1081F0000223002BF7D1012070470020704701F0C7
:108200001F024B090121914000EB830000F065B88B
:108210004B0910B501F01F040121A14000EB8300C0
:1082200000F04FF8E04000F0010010BD01F01F0326
:1082300001229A404B0900EB8300D14300F065B85E
:108240004B0901F01F0150F82300C84000F0010065
:1082500070472DE9F0474F1E7F0980460E460137D3
:10826000002558F8254008EB8509E44394FAA4F466
:10827000B4FA84F44FEA451A202C06D10135AF42F6
:10828000EFD834462046BDE8F0875444A642F5D9DD
:1082900021464046FFF7BCFF0028F3D0D9F8004044
:1082A000E44394FAA4F4B4FA84F4E5E710B5034681
:1082B00053E8000F0A4643E8002494F0000FF7D17A
:1082C00010BD10B5034653E8000F40EA010243E831
:1082D000002494F0000FF6D110BD10B5034653E80A
:1082E000002F42EA010043E8000494F0000FF6D1A9
:1082F00010BD10B5034653E8000F00EA010243E841
:10830000002494F0000FF6D110BD10B5034653E8D9
:10831000002F02EA010043E8000494F0000FF6D1B8
:1083200010BD10B5034653E8000F00EB010243E80F
:10833000002494F0000FF6D110BD10B5034653E8A9
:10834000002F02EB010043E8000494F0000FF6D187
:1083500010BD10B5034653E8002FA2EB010043E81F
:10836000000494F0000FF6D110BD0121FFF7A9BF62
:108370000121FFF7B2BF0021FFF7BBBF10B590B1DD
:10838000D0E9012301689B1ADBB20A60013BDBB232
:10839000FF2B026802D10020107110BD11684C1C27
:1083A00014600B70F2E70E20F7E737B5054600249E
:1083B0000DF107008DF80740FEF72EFF2A686B6865
:1083C000116899420ED9481E106011F8014CEB68F3
:1083D000A98A01FB0434AB6811791B1ADBB29942FC
:1083E00038BF13719DF80700FEF73AFF204603B02F
:1083F00030BD37B5054600230DF107000C468DF85A
:108400000730FEF709FF2A681368591C1160E968F4
:10841000641AA98AB4FBF1F41C709DF80700FEF7FA
:108420001FFF03B030BD826810B504462AB143690E
:108430000168006998470023A36010BD0EB403B51E
:10844000039921B104AB01AA019300F06FF802B0C7
:108450005DF804EB03B07047826830B40468551CC3
:108460008560A154D0E901329A4202D330BCFFF7B3
:10847000DABF30BC704700002DE9F84F9846DDE9BF
:108480000A43154682460F460A464FF00109AA42A2
:108490000FD2C14538BFC14613F0010B01D16CB9F1
:1084A00000240126B8F1010F1BD908F1FF386E43F3
:1084B000F8E709F10109B2FBF5F2E8E79B070ED5F1
:1084C000B8F1000F0CBF30262026A145E9D2013CAF
:1084D00031465046FFF7C0FF002CF6D1E0E72026DA
:1084E000F3E7B7FBF6F39D42E1D9DFF83C80B7FB39
:1084F000F6F3504618F8031006FB1377FFF7ACFFAE
:108500003346AB42B6FBF5F6F1D2BBF1000F02D019
:108510000CB1A14501D3BDE8F88F20215046013CA4
:10852000FFF79AFFF4E700BF3C1803002DE9F74F6F
:10853000054617468846002900F0428118F8011BBD
:1085400049B92B7B002B00F03B81284603B0BDE8E6
:10855000F04FFFF768BF252940F0B780002698F854
:1085600000302D2B424608F1010823D0302B24D0B7
:108570002B2B25D000242A2B02F1010123D13B68AB
:108580001A1D1B683A601C440A4613782E2B26D10C
:1085900001324FF0000A104610F8011BA1F1300C17
:1085A000BCF1090F1DD80A2303FB0A13A3F1300AFB
:1085B0000246F0E746F00106D1E746F00206CEE7B4
:1085C00046F00406CBE711F8013CA3F1300009287E
:1085D000DBD80A2202FB0434303C0A46CBE74FF0DA
:1085E000000A12F8011B01F0FB0068289046F8D041
:1085F000782909D86F290CD8632962D022D8252977
:1086000063D0582900F0888098F80030002B95D16D
:1086100097E770390829F7D801A353F821F000BF74
:108620009B87020009860200098602002987020052
:1086300009860200078702000986020009860200F7
:1086400019870200642901D06929DDD13A68D2F87E
:108650000090111D89EAE9723960A2EBE9724FF0CE
:10866000010B092A35DCD34538BFD3462CB1B9F10B
:10867000000F01DB720700D5013CB30702D5BAF148
:10868000000F03D0F00701D44CBB0024B9F1000F58
:108690002DDAC9F100092D212846FFF7DDFE06F08D
:1086A0000302022A04D1BAF1000F01D11CBB00243D
:1086B000CDE9004653460A2249462846FFF7DCFE2C
:1086C000A2E73B681A1D19783A602846FFF7C4FEF6
:1086D0009AE70A230BF1010BB2FBF3F2C1E7A345C2
:1086E000D4D220212846013CFFF7B6FECCE7710723
:1086F000D5D52B21D0E7A345DAD230212846013C3D
:10870000FFF7AAFED2E73968CDE900460A1D3A60B4
:1087100053460A220968D0E739680A1D3A60CDE954
:10872000004653461022F5E73B681A1D3A6016F0E2
:108730000106D3F8009028D1B9F1000F03D04846C4
:1087400007F034FF0646B44200D904BB09F1FF39F3
:1087500019F8011F00293FF457AF2846FFF77CFEA8
:10876000F6E728460136FFF777FE19F806100029CC
:10877000F7D1A642BFF448AF002C3FF445AF20210B
:108780002846013CFFF768FEF3E70026EDE72021CD
:108790002846013CFFF760FED5E73B681A1D3A60AA
:1087A000302128461C68FFF757FE78212846FFF73E
:1087B00053FE00220823CDE90032214610227CE737
:1087C00003B0BDE8F08F00BF13B50B46114670B97A
:1087D0000E4B0F4A18880E2300930E4B00040E49CF
:1087E00040F00100FEF7C5F80E2002B010BD3BB905
:1087F000064B0A4A18880E2300930004054BEEE747
:1088000003601B6802B0BDE81040184758220020E2
:108810004C180300E21903005118030080180300EC
:108820002DE9F34178B9354B354A1888354B0E247C
:1088300000040094344940F00100FEF79AF8204605
:1088400002B0BDE8F0813AB92C4B304A18882D4B64
:108850000E2400040094EDE7D0F800E0BEF1000F14
:1088600007D1264B2A4A1888264B08240004009476
:10887000E0E73BB9214B274A1888224B0924000422
:108880000094D7E74568D5F80480B3FBF8F508FBFA
:1088900015353DB1194B204A18881A4B092400049C
:1088A0000094C7E78D0707D0144B1C4A1888154B56
:1088B000102400040094BDE712F0030F07D00F4B03
:1088C000174A18880F4B102400040094B2E7C568BB
:1088D000A9420BD34D1EEC180569AC4206D8DEF850
:1088E0000C40A44602B0BDE8F0416047034B0D4A7E
:1088F0001888044B1024000400949BE758220020A1
:108900004C180300F419030051180300CE1803009B
:108910007A1803008D180300D4180300FE18030012
:108920001619030039190300F7B570B9254B264A0B
:108930001888264B0E2400040094254940F00100BD
:10894000FEF717F8204603B0F0BDD0F800C0BCF128
:10895000000F07D11B4B1F4A18881C4B082400042A
:108960000094EAE73AB9174B1B4A1888174B0924B9
:1089700000040094E1E74768D7F800E00EF1FF3704
:108980000F4207D00F4B154A1888104B10240004D3
:108990000094D2E7C768B9420CD304694D1E0EFBA0
:1089A0000255A54206D8DCF81040A44603B0BDE845
:1089B000F0406047034B0A4A1888044B1024000417
:1089C0000094BAE7582200204C180300071A03004D
:1089D000511803007A1803008D1803006019030072
:1089E0008619030070B550B90E4D0F4C0026641B5C
:1089F0001423B4FBF3F4B44208D1002010E0036860
:108A0000002BF1D0BDE87040DB6918472B6813B923
:108A100001361435EFE7DB69284698470028F7D080
:108A200070BD00BF6C2200208022002029DF70472B
:108A300028DF704770B503689E6886B004460D460F
:108A40006EB114220021684607F05BFDA368059310
:108A5000237901952BB1012B0DD06846B04706B0A4
:108A600070BD01238DF8003023690293E3680393FE
:108A700063690493F1E702238DF80030E3681B0378
:108A80000293F5E70846704700207047024B187ABA
:108A9000003818BF01207047482B0020034B187A7C
:108AA0000122B0FA80F05A7440097047482B002028
:108AB00008B510461A4607F0FBFC002008BD000070
:108AC00008B514220021044807F01BFD0348FFF7F6
:108AD000FFFA002008BD00BF482B0020A022002084
:108AE00010B5094C094B43602046FFF73EFC40B9E6
:108AF00007F040F9064920741C2306488C22FFF732
:108B0000D4FA002010BD00BF482B0020281A030013
:108B1000BC2A0020A022002070B5244C244E237AC9
:108B200025463BB923492448FFF72EFB306008B99E
:108B3000606070BD022334682B72237973B1012BFE
:108B400024D020460321FFF775FF00232B726B60B2
:108B500018491948BDE87040FFF741BBD4E9052327
:108B6000D21AB2F5805FD4E9031028BF4FF48052C7
:108B70009208012A38BF012219441844FFF756FF12
:108B800050B11128DDD101232B72D2E7D4E90303C0
:108B90001844FFF74DFFF3E72B7C002BC9D10146AA
:108BA000BDE87040022000F009B800BF482B00204B
:108BB000602B00205C2B0020A022002038B5831EF3
:108BC000012B45D8234C237A002B41D0022B09D10D
:108BD000032830D0204B00221B68E2601A793AB19A
:108BE000012A22D0637C7BBBBDE83840FFF794BFED
:108BF000D3E905128D1AB5F5805F94BF521902F5BD
:108C000080529A619142EDD102284FF0000308BFD3
:108C100019462372104B18BF0D211868FFF70AFF81
:108C20000E490F48FFF7DBFADCE71A6901321A61D7
:108C30005B699A42E7E7E3680133082B01D8E360F8
:108C4000D0E70023E360DFE7BDE8384007F082B8F3
:108C500038BD00BF482B0020602B00205C2B00207B
:108C6000A022002000F0FD03012B08D1044B0022BC
:108C70005A74421E504250411874FFF74DBF70475E
:108C8000482B002010B5064C201DFFF76EFB28B9BD
:108C9000637C1BB9BDE81040FFF73EBF10BD00BFAD
:108CA000482B00202DE9F34180460D460F4801A9CD
:108CB00016461F46FFF72EFA0446A8B11C220021D3
:108CC00007F01FFC2D0B0123237101A90748C4F8ED
:108CD0000080A760E5606661FFF746FAFFF7D2FF04
:108CE000002002B0BDE8F0810420FAE7A0220020B5
:108CF0002DE9F74381468846104801A917461E46CC
:108D0000FFF708FA0446B0B11C22002107F0F9FB76
:108D100000250A9BA36001A9C4E9037807482571CF
:108D2000C4F800906661FFF71FFAFFF7ABFF284613
:108D300003B0BDE8F0830420FAE700BFA0220020C2
:108D4000FFF71CBBF8B546790146721E05460023A5
:108D500093422D6803D30024A64202D8F8BD013304
:108D6000F6E70F682846FFF744FB01343946F3E77E
:108D70002DE9F843868ACD1C0746FFF716FB043E13
:108D800035440446B5FBF6F5F0B14FF48073EDB20F
:108D90008380C680013D076081464FF00008A845EA
:108DA00012D23846FFF701FB064648B1637901331A
:108DB000637108F10108C9F8000007608146EEE719
:108DC0002046FFF7BFFF34462046BDE8F883012167
:108DD0000430FFF7B2BA10B5012104460430FFF7A2
:108DE000B8FA10F0FF0F04D12046BDE81040FFF79D
:108DF000A9BF10BD2DE9F843B0F80680043305463D
:108E0000B3FBF8F40F46164608FB14333CB9A8EB45
:108E10000309B14528BFB14626B9BDE8F8832D68DE
:108E2000013CF3E70433E818A6EB09064A46391972
:108E300007F03EFBB0454C442D68C1464FF000039F
:108E400028BFB146E8E72DE9F843B0F806800433BF
:108E50000546B3FBF8F40F46164608FB14333CB93D
:108E6000A8EB0309B14528BFB14626B9BDE8F88390
:108E70002D68013CF3E70433E918A6EB09064A46DE
:108E8000381907F015FBB0454C442D68C1464FF02A
:108E9000000328BFB146E8E7064B10B500241C705C
:108EA000054B1C60BFF35F8F0449054800F00AF8CA
:108EB000204610BD6C2B0020702B0020601A030090
:108EC000642B00200B684A684360934208BF00236C
:108ED000016008BF43607047436843B1026891680E
:108EE00052680B449342436004BF002343607047C1
:108EF00010B50D49A1F59472914201D800200FE000
:108F00008C1AE30F03EBE4035B1002EBC30452F88B
:108F10003330834205D802D204F10802ECE76068DE
:108F200010BD2146E8E700BF641F030008B5FFF746
:108F3000DFFF024B002808BF184608BD261E0300AD
:108F4000BFF34F8F0549064BCA6802F4E062134332
:108F5000CB60BFF34F8F00BFFDE700BF00ED00E027
:108F60000400FA050C4B1B78062B10D10B4B1B6829
:108F70001A070CD10A4B186800F0F003302B08D008
:108F800000F0E000A0F14003584258417047002033
:108F900070470120704700BFE00F00F0E40F00F0C1
:108FA000E80F00F0094B1B78062B0CD1084B1B680F
:108FB0001A0708D1074B186800F0F000A0F1300341
:108FC0005842584170470020704700BFE00F00F042
:108FD000E40F00F0E80F00F008B5FFF7C3FF28B179
:108FE000894B8A4A1B68C3F304231360FFF7DAFF37
:108FF00010B1874B874A1A60FFF7B4FF28B1864B40
:10900000864A1B68C3F342331360FFF7CBFF20B1DE
:10901000834AD36823F08073D360FFF7A3FF40B186
:109020004FF080430022C3F80C21C3F81021C3F88D
:109030003825FFF7B7FF10B17A4B03221A60FFF70C
:10904000B1FF40B1784B05221A6001229A670022D5
:109050009A603F225A60754B1B78062B50D1744B97
:109060001B6818074CD1734B1B6803F0F003502B9F
:1090700046D14FF08052704BD2F80414C3F820153B
:10908000D2F80814C3F82415D2F80C14C3F8281524
:10909000D2F81014C3F82C15D2F81414C3F83015F4
:1090A000D2F81814C3F83415D2F81C14C3F84015BC
:1090B000D2F82014C3F84415D2F82414C3F8481584
:1090C000D2F82814C3F84C15D2F82C14C3F8501554
:1090D000D2F83014C3F85415D2F83414C3F860151C
:1090E000D2F83814C3F86415D2F83C14C3F86815E4
:1090F000D2F84014C3F86C15D2F84424C3F8702594
:10910000FFF730FF28B14D4B4D4A1B6803F04F036A
:109110001360FFF727FF48B14FF08043D3F80024D6
:10912000D10744BF6FF00102C3F80024454B1B6810
:10913000062B08D1444B1B68062B01BF434A13681A
:1091400043F480631360424AD2F8883043F47003DA
:10915000C2F88830BFF34F8FBFF36F8F4FF01023EB
:10916000D3F80C22D2071ED53A4B0122C3F80425AE
:10917000D3F80024002AFBD04FF01022D2F80C3292
:1091800023F00103C2F80C32324B1A46D3F8001414
:109190000029FBD00021C3F80415D2F80034002BBD
:1091A000FBD0FFF7CDFED3F80022002A03DBD3F873
:1091B0000432002B23DA274B0122C3F80425D3F80D
:1091C0000024002AFBD04FF010221521C2F8001213
:1091D000D3F80024002AFBD04FF010231522C3F847
:1091E00004221C4B1A46D3F800140029FBD000219E
:1091F000C3F80415D2F80034002BFBD0D1E7164B8E
:10920000164A1A6008BD00BF240300104035014013
:1092100074C007400DF0ADBA440200103C05004098
:10922000F0ED00E0A005004010560040E00F00F017
:10923000E40F00F0E80F00F000C0004058020010FA
:10924000E40E004030010010340100103C170040D3
:1092500000ED00E000E00140B42200200090D003C7
:10926000054A4FF0A043105CD3F8043523FA00F010
:10927000C04300F001007047681F0300044B1A5CF4
:10928000012393404FF0A042C2F80C35704700BF55
:10929000681F0300044B1A5C012393404FF0A04267
:1092A000C2F80835704700BF681F030008B50020EA
:1092B000FFF7F0FF0120FFF7EDFF0220FFF7EAFFC5
:1092C000BDE808400320FFF7E5BF08B50020FFF721
:1092D000D5FF0120FFF7D2FF0220FFF7CFFFBDE847
:1092E00008400320FFF7CABF074A4FF0A041105CB7
:1092F000D1F804350122824022EA03001340C1F86C
:109300000805C1F80C357047681F0300014B185C55
:10931000704700BF641F030038B5074C051E04F1F9
:10932000080318BF1C4623682BB11A6822605B68CB
:1093300028469847F7E738BD7C2B002020B9054B1D
:1093400001225A70FFF7E8BF012802D1014A90704C
:10935000F8E77047742B002020B9034B01225A70A4
:10936000FFF7DABF704700BF742B002038B50B4CF5
:10937000237883B90A486360A3602361E36000F047
:1093800061F8054606F0F6FC08B900F069F801231B
:109390002370284638BD8525FBE700BF742B0020CD
:1093A0003D93020037B50B4C00230DF107008DF8FB
:1093B0000730FDF731FFE368013BE360E56815B96D
:1093C00000F062F8A5709DF80700FDF749FF03B0B3
:1093D00030BD00BF742B0020012813B508D003282E
:1093E0001CD018B9104B0122C3F8802002B010BD68
:1093F0000E4C00230DF107008DF80730FDF70CFF30
:1094000023780BB9FFF7B2FFE3689DF8070001333B
:10941000E3600123A370FDF723FFE7E700F020F8E6
:10942000FFF7C0FFE2E700BF00E100E0742B00207F
:1094300000F18040002382B0036003680193019B28
:1094400002B07047054A13792BB90121106093715E
:109450009180184670478520704700BF882B0020F8
:10946000084B1A68D20706D4E02283F800230122B1
:10947000C3F880211A604FF080430022C3F81825FA
:10948000704700BF00E100E0044B01221A604FF07A
:109490008042D2F81834DB03FBD470470C00004044
:1094A000244B1B6810B573B14FF48070FFF7C0FFF9
:1094B0004FF080430122C3F808231F4B587910B99D
:1094C0005A711B6898471D4B1B6863B14FF482703B
:1094D000FFF7AEFF4FF080430222C3F80823164B7C
:1094E00001201B689847164B1B6863B14FF48870C6
:1094F000FFF79EFF4FF080431022C3F808230E4B66
:1095000002201B6898470F4B1B6893B10E4B00223B
:109510001A604FF48670FFF78BFF4FF080430821ED
:10952000C3F80813044B9A71BDE810401B68032070
:10953000184710BD00010040882B002004010040A6
:10954000100100400C010040340C004000F180404C
:1095500000F5C040002382B0036003680193019BC3
:1095600002B07047800000F1A040D0F8002722F43C
:109570004032C0F80027D0F8003743EA0141C0F874
:1095800000177047054B4FF0FF32072843F82020A3
:1095900084BFC01880F84820704700BF902B00207F
:1095A00010B5184C94F8583053BB04F13003202107
:1095B000FF22013911F0FF0103F8012BF9D1C8B2E4
:1095C000FFF7E0FF01310C29F9D1042200210E48F8
:1095D00006F097FF0D4BE02283F806234022C3F8E4
:1095E00080214FF4BE701A60FFF7B0FF084B4FF0B8
:1095F0000042C3F80423012384F85830002010BD32
:109600000820FCE7902B0020E42B002000E100E084
:1096100000600040F0B5364D2C1894F93040002C15
:1096200064DA8C78C4F34004002C0BBF08230023B9
:109630000C260826B34201D10420F0BD55F8237052
:1096400001373FD12E1845F8232086F8303014B961
:10965000EA1882F848008A78540713D4D60733D51D
:10966000820002F1A042D2F8004724F00204C2F8BE
:109670000047204EC20800F007070124BC40B75C39
:109680003C43B4548A780C7812F0020225D09B0037
:1096900003F1804303F5C0430202D3F8101521F40F
:1096A000473121F44071C3F810152404D3F8101584
:1096B00002F4F85204F4403422430A43C3F810255C
:1096C0000020BAE70133B5E74C7800F5E0724FF0BF
:1096D000A046A40046F82240CBE7083B2B4493F871
:1096E000501041EA841483F85040E9E70820A4E7C9
:1096F000902B0020E42B002038B51F4C251895F93D
:109700003020072A16DD224492F848309B09032BAB
:109710000BD14FF0A043D3F81015C14001F0010167
:109720000231BDE83840FFF71DBF012B0CBF0221FD
:109730000321F6E7D3B2072B1CD8930003F1804333
:1097400003F5C043D3F8100540F00100C3F810053D
:1097500002F14000800080B2FFF7F8FE51B195F9A8
:10976000303054F823302BB1012303FA02F2034BBB
:10977000C3F8042338BD00BF902B002000600040D8
:109780000E4B034493F93020072A02DD0021FFF736
:10979000E9BED3B2072B10D8930003F1804303F541
:1097A000C043D3F8101521F00101C3F810150123AF
:1097B00003FA02F2024BC3F808237047902B0020F3
:1097C000006000402DE9F04F87B000245A4D03940B
:1097D0004FF48072012102F1804303F5C04390B23F
:1097E0001B68012B06D1D5F804330B4202D0FFF7DA
:1097F000ADFE0C430432B2F5907F4FEA4101EAD14D
:109800004E4B1B68012B0AD14FF4BE70FFF79EFE32
:109810004FF0A04344F00044D3F81035039314F004
:10982000FF0F1AD0464F00250126344210D0AB005E
:1098300003F1804303F5C043D3F81005D3F81015A6
:1098400057F8253023B1C1F30141C0F304209847F4
:109850000135082D4FEA4606E7D1002C65DA0021D4
:109860004FF0FF33CDE90413354D01274FF0000AC7
:10987000344ED1464FF0A04816F9013B5A1C45D052
:10988000C3F3C20106AA5018DCB210F8042C03F08E
:109890003F0B03F0070307FA03F31A4236D005EB38
:1098A0000B02A40992F9302055F8222052B9032C5A
:1098B0002CD10DF1100E1EF801C04CEA030C0EF86D
:1098C00001C001E0032CF4D00BF5E07110F80C0C92
:1098D00058F821101842C1F3014105D0022915D1D1
:1098E000032C0FD1214604E003290FD1032C09D109
:1098F00002215846019209F10109FFF733FE019A4E
:109900005FFA89F912B12146584690470AF1010AD7
:10991000BAF1040FB0D1B9F1000F06D04FF0A04357
:10992000039AD3F81035934202D107B0BDE8F08F07
:109930000393049B059399E7006000407C6100401D
:10994000902B0020E02B0020014B1B68184700BF24
:10995000EC2B00200E4B984237B50C4602D000206D
:1099600003B030BD00230DF107008DF80730FDF77F
:1099700053FC084B1D7915B901221C601A719DF822
:109980000700FDF76DFC002DE9D01120E8E700BFCE
:1099900000200040EC2B00201FB503788DF800302C
:1099A0008388ADF8043083688DF80630C3688DF87D
:1099B0000730036902934369054A0393054B6846E0
:1099C00053F8213052F82110984705B05DF804FB98
:1099D000F42B0020FC2B0020024B4FF4807043F04E
:1099E00001031847901F03002DE9F047174690F830
:1099F0000090324A42F82970314A42F829304B7BB4
:109A000080460C4663B30868496882008B0002F107
:109A1000A04203F1A04340F20C65C2F800570126B2
:109A2000C3F800574FF0A04506FA00F006FA01F11E
:109A3000C5F80805C5F8081540F20D61C2F8001711
:109A4000C3F80017FFF7C8FF4FF0000AD5F810253C
:109A5000636822FA03F3DB070ED5BAF1000F1ED1BB
:109A6000002F184A4B4608BF3A46214608F1040029
:109A7000BDE8F04700F0D2B8236806FA03F3C5F852
:109A80000C35FFF7A9FF236806FA03F3C5F808357C
:109A90000AF1010AFFF7A0FFBAF1090FD6D16368F6
:109AA00001254FF0A04605FA03F3C6F80C35FFF781
:109AB00093FF63689D40C6F80855D1E7FC2B002052
:109AC000F42B0020999902000023435082B04358A0
:109AD0000193019B02B07047F0B54C484C4CD0F854
:109AE000243187B005469BB14FF49271FFF7ECFF2C
:109AF000D0F8043163B9A368C0F808330223A36027
:109B0000A368C0F8043301230362436107B0F0BDCA
:109B1000D5F80431002B49D03E4F3C484FF48271B8
:109B2000FFF7D2FF0FCF01AE0FC63B68336094F84A
:109B30002E307BB1237B012B0CBFD5F83C25D5F80B
:109B40004C250292022B314B0CBFD3F83C35D3F895
:109B50004C3503932D484FF4B071FFF7B5FF2B48F8
:109B60004FF4AE71FFF7B0FF94F8303013B194F8B2
:109B70002E303BB1254B0022C3F80022A260264ABA
:109B8000C3F80823214AD2F8C434C2F8C4349A076F
:109B900036D501238DF8003094F830300BB984F8B5
:109BA0002F30D4E9003168469847AFE717484FF4A3
:109BB000A471FFF789FF237B83B9164F0FCF01AE46
:109BC0000FC63B68336094F83030002BDAD1C5F80B
:109BD0000032A360104BC5F80833D3E74FF400738D
:109BE000C5F8003240F20223A36003F1CE73C5F83A
:109BF0000833A368C5F804330123AB602B6285E703
:109C000013F0040318BF0223C4E700BF0030004074
:109C1000042C0020102C002002029C012DE9F84F9A
:109C20000679374D4FF0340A0AFB06FA05EB0A04B1
:109C30009B4694F82D3080460F469146002B5AD112
:109C400030490068FFF786FE002856D13A687B7BD2
:109C500084F832304FF0A04102F5E073A060C4F800
:109C600004B084F82F0084F8300040F20C6445F80A
:109C70000A9041F823407B6803F5E07C41F82C40D2
:109C8000D8F80040C4F80825C4F80C35BB68C4F8FF
:109C90002435B9F1000F26D044F30733002B3A7B6B
:109CA000B4BF194903F16041C4F307344FEA5313B9
:109CB000B8BF04F00F074FEA4212A8BF01F5614197
:109CC0004FEA8303D2B203F16043B4BFCA5581F8AF
:109CD000002303F5614304F01F04012202FA04F497
:109CE000C3F880411C60342303FB0655012385F82B
:109CF0002D30BDE8F88F0820FBE71120F9E700BF01
:109D0000042C0020D99A020014ED00E002680379C7
:109D10000621C2F80015044A342101FB0323022264
:109D200083F82D20704700BF042C00202DE9F84354
:109D3000CB6803F06043B3F1005F0D46914603D05A
:109D400010263046BDE8F88390F80480934F0468ED
:109D5000934BC4F80833342606FB087696F82F3068
:109D600023B1B368C4F804331126EAE712F0140FE4
:109D70000CBF0123002386F82F308E46BEE80F006B
:109D800006F10C0CACE80F00DEF80030CCF8003027
:109D9000C9F3001386F830306B78C4F888354FF477
:109DA00082712046FFF790FE4FF49271FFF78CFE10
:109DB00019F0010318BF0123C4F8503519F002034C
:109DC00018BF0123C4F840352B78032B00F2C48060
:109DD000DFE803F084AC68022B6903F06043B3F161
:109DE000005FADD14FF48073EA68C4F800326B684D
:109DF000C4F844254FF4A871C4F84835FFF764FE51
:109E00004FF4B071FFF760FE4FF4A471FFF75CFEF2
:109E100001232362A360D4F85031002BFBD04FF410
:109E2000A8712046FFF750FEAB682A69C4F84425A4
:109E3000C4F848355B4A342303FB08739A604FF437
:109E400082730822002619F0080F04D1297803290B
:109E50001CBF0121A150342202FB08F2B918BA58E4
:109E6000002A7ED1012223441968002900F086804F
:109E70003422D4F8C434C4F8C43402FB0877002276
:109E800087F82F20002B3FF45CAF13F0020F48F24D
:109E9000012608BF032613F0040F48F2022318BF5F
:109EA0001E464EE76B68EA68C4F84425C4F8483596
:109EB0002B6903F06042B2F1005F7FF441AFAA6802
:109EC000C4F834354FF48453C4F83825C4F800324C
:109ED000342303FB087340F20222AFE76B68EA68A1
:109EE000C4F8442519F0200FC4F848354FF0340366
:109EF00010D003FB08734FF48072C4F80022294A83
:109F00009A604FF4A471FFF7DFFD4FF4A4730122B0
:109F1000226296E74FF4007203FB0873C4F8002234
:109F200040F202229A604FF48273F0E76B68EA68AD
:109F3000C4F83425C4F838354FF48053C4F80032DF
:109F4000342303FB087340F202229A600123236248
:109F500000224FF4827375E74FF4827308220726BC
:109F600071E719F0040F1CBF4FF400738B603423AA
:109F700003FB0877BB68C4F80433E2E6D4F8241185
:109F800000293FF471AF4FF492712046FFF79CFD1A
:109F90004FF482732262626165E700BF042C0020E7
:109FA00002029C0100020400F0B587B004460F468F
:109FB00015460021142201A81E4606F0A2FA9DF8BB
:109FC00030308DF80570002B14BF2022002201A92B
:109FD000204602960495FFF7A9FE07B0F0BDF0B544
:109FE00087B004460F4615460021142201A81E46DC
:109FF00006F087FA0123002201A920468DF80430DB
:10A000008DF8057002960495FFF790FE07B0F0BD3D
:10A0100000F1804000F5E040002382B00360036857
:10A020000193019B02B07047F0B5504B504C1B6838
:10A0300085B0002B3DD04FF4827094F82E20FFF7AE
:10A04000E7FF2AB394F82F3013BB4A4B1B68002B51
:10A0500033D04FF48070FFF7DBFF638B94F82D1043
:10A060008B424FD922895B1A9BB292B26383D31A77
:10A07000626802EB4303404AC2F82C36C2F830163D
:10A080004FF48270FFF7C4FF3C4B01221A6014E0CA
:10A09000636802932389ADF80C30E36800218DF8E2
:10A0A000041023BB2374236801A89847002384F875
:10A0B0002F3094F82E30002BC7D1314B1B685BB189
:10A0C0004FF48870FFF7A4FF0023237402238DF858
:10A0D000043001A8236898472A4B1B68EBB14FF462
:10A0E0008A70FFF795FF0023237405B0F0BD208B25
:10A0F000608363602081E160002AD4D11E4B01227D
:10A100001A60D0E7BCD1E368012284F82F2013B194
:10A1100000226283AFE76383B2E766694FF00047CE
:10A120000125002EE1D0B6FA86F227FA02F3463274
:10A13000920026EA030602F1804303F5E0431B6820
:10A14000002BEED01046FFF763FFA2F58C72D30808
:10A1500082F00402C2F380028DF808308DF80450BA
:10A1600023688DF8092001A89847DAE704710040B8
:10A17000382C002000710040007000400470004046
:10A1800010710040147100402DE9F3470024064689
:10A190000F46904600F5A0754FF48039A246A00006
:10A1A00000F5A07398B22B686BB1D6F8043309FAA6
:10A1B00004F21A4207D0C5F800A02B680193019B56
:10A1C000D7E9003198470134A04505F10405E6D1EF
:10A1D00002B0BDE8F0870000024903480422FFF7FF
:10A1E000D3BF00BF682C0020008000400249034814
:10A1F0000622FFF7C9BF00BF742C002000A0014059
:10A2000008B5094B1B7853B10020FFF743F8012034
:10A21000FFF740F8BDE808400320FFF73BB8BDE872
:10A220000840FFF743B800BF802C0020F8B5794CF8
:10A23000237805461BB100232370FFF7E1FF172D9C
:10A2400000F28480DFE805F00C13133F5061727C4C
:10A2500084898489919696969696C0C5CDD5E0E07E
:10A26000FFF7CEFF6C4B00241C702046F8BD002089
:10A27000FEF7F6FFF8B10020FFF70CF8022D0CBF37
:10A280004FF4E1614FF47A61634B1D704FF400406D
:10A290004FF4FA740025E0FB01454FF47A72002375
:10A2A0002046294605F086FF00220146BDE8F84019
:10A2B0005A48FCF759BFFEF7E1FF022D0CBFC82139
:10A2C0004FF4C871E0E70020FEF7CAFF40B100205C
:10A2D000FEF7E0FF4FF448714F4B03221A70D5E7A9
:10A2E000FEF7CCFFC821F7E70020FEF7B9FF38B131
:10A2F0000020FEF7CFFF4FF47A61474B0422EDE7D1
:10A30000FEF7BCFF4FF4C871F7E70020FEF7A8FF87
:10A3100048B10020FEF7BEFF3F4B05221A7041F600
:10A320009A110022C2E7FEF7A9FFF5E70020FEF729
:10A33000DBFF394B06221A70002240F6CD41B5E70B
:10A340000020FEF79BFF344B07221A7000248CE795
:10A3500001202070FEF7C8FFEEE701202070FEF715
:10A36000C3FF00224FF48041A0E7FEF7AEFF2A4B67
:10A370000C22EAE72A482B4EFCF73EFFD5F11105E7
:10A3800004461CD0D8B9012D13D0C8235D434FF427
:10A3900000474FF4FA7000214FF47A720023C7FB94
:10A3A000050105F007FF224601461D48FCF7DCFECB
:10A3B00004460220FEF762FF0123337055E70220B6
:10A3C000FEF768FF0023F8E7FFF71AFF124B12228F
:10A3D000BBE7FFF715FF0020FEF750FF0E4B1322DF
:10A3E000B3E7FFF70DFF0120FEF748FF0A4B1422E9
:10A3F000ABE7FFF705FF0020FEF740FF0120FEF767
:10A400003DFF054B1522A0E7FEF75FFF024B1D70D5
:10A410009CE700BFD42C0020D52C0020A42C0020C9
:10A42000842C0020802C0020044B1B6813F00103B7
:10A4300001D0FFF7FBBE1846704700BFD02C0020AC
:10A44000032811D8012A0AD101290FD100F10E02E7
:10A45000D2B20D4B00EB40001A5400207047012986
:10A46000F7D0022904D049B1072070470022F8E74D
:10A47000054B00EB400018444270EEE7024B00EB46
:10A48000400018448270E8E7C42C0020032808B577
:10A4900012D8FEF73BFF800000F1A040D0F8003753
:10A4A00023F44033C0F80037D0F8003743F440338A
:10A4B000C0F80037002008BD0620FCE708B50122DF
:10A4C00002210020FFF7BCFF08B1072810D10722A6
:10A4D00002210120FFF7B4FF08B1072808D10021AD
:10A4E0000A220846FFF7ACFF10B1072808BF00207A
:10A4F00008BD00000388102B10B502D0112B1ED010
:10A5000010BD1A4C2168B1B901220846FFF798FF27
:10A5100008B1072824D1072202210120FFF790FF6C
:10A5200008B107281CD1042202210020FFF788FF70
:10A5300008B1072814D1236801332360E0E70B4AF0
:10A540001368013B1360002BDAD1FFF7B7FF002837
:10A55000D6D0074B1B68002BD2D0BDE8104018475F
:10A56000034B1B68002BE6D09847E4E7DC2C002067
:10A57000D82C002008B50020FFF788FF08B1062876
:10A5800006D10120FFF782FF10B1062808BF002086
:10A5900008BD76DF70477ADF70477CDF70478FDF5A
:10A5A000704733DF70474CDF70470000014B0122DA
:10A5B0001A607047282E0020FCF73CBB08B50378D2
:10A5C0004BB9054B3B211888FFF7E3FF18B1BDE8F5
:10A5D0000840FCF72FBB08BDC822002008B588B191
:10A5E00003281CD10E4B0F491888000440F00300CB
:10A5F000FCF7A8F90220FFF717FF80B1BDE808407B
:10A60000FCF718BBFFF710FF08B1FCF713FBFFF7CF
:10A61000B1FF08B1FCF70EFBFFF7C3FFEDE708BD84
:10A6200040220020A71F030008B50548032102F0BF
:10A6300017FB18B1BDE80840FCF7FCBA08BD00BF25
:10A64000042D002030B5037885B004460D2B10D8BA
:10A65000DFE803F0070F110F220F2A390F350F39EA
:10A6600032391A4B1A491888000440F00300FCF7ED
:10A6700069F905B030BD154B40881D8802F02EFEEB
:10A680002D04237A009345F003050246638811499F
:10A690002846FCF76EF9ECE7002340888DF80C3073
:10A6A00003A904F0D9FAE4E7FDF7ACFC30F00803A5
:10A6B000DFD0FCF7BFFADCE7FFF7B6FFD9E70069A8
:10A6C0000028D6D0F5E78068FAE700BF40220020D6
:10A6D000B91F0300E21F0300FCF7ACBA014B186876
:10A6E000FFF74EB8B8220020074A08B500231360D0
:10A6F000064A1360064B01221A60FFF7EFFFBDE820
:10A70000084000F04DBD00BFF82C0020282E00208E
:10A71000002D0020024B01211868FEF7EDBF00BF9D
:10A72000B822002003883B2B13B5044672D007D80B
:10A73000112B1BD0212B61D0102B37D002B010BDB4
:10A74000562B67D0572BF9D1354C2268012AF5D109
:10A75000344801F073FF344B13211888FFF719FFB9
:10A7600008B1FCF767FA00232360E7E72F4B304975
:10A770001888000440F00300FCF7E4F82D48FCF7CB
:10A780003BFD2D4A4FF0A0431268D3F80435D34067
:10A79000DB0701D500F004FDFFF7A0FF274A0023E7
:10A7A0001360274A13601E4A1360C7E71F4B2549F1
:10A7B0001888000440F00300FCF7C4F8224801F0B8
:10A7C0003DFF0720FFF730FE08B1FCF733FA164BC8
:10A7D000A1881E48198003F069FC08B1FCF72AFA29
:10A7E00000224FF470211348FCF7BEFC00F022FE5B
:10A7F000FFF790FF114B01221A609FE7002380882A
:10A80000ADF8043001A9FFF7CAFE002896D0FCF786
:10A8100011FA93E7A0881321FFF7BBFEF5E700BF0D
:10A82000002D00205C200300C822002040220020D0
:10A8300022200300DC2D0020C0220020F82C002064
:10A84000282E0020302003003B200300D02D0020C4
:10A8500007B5FEF7A5FE08B1FCF7ECF94FF48173DC
:10A86000ADF8043002238DF80630064B064A18680E
:10A8700001A9FEF7CFFE08B1FCF7DCF903B05DF8E3
:10A8800004FB00BFB8220020ADA5020038B50A4C79
:10A890000A4D236803B138BD2A68012AF9D12D2059
:10A8A0002B6000F0C3FC01F04BFD01282060F0D1CB
:10A8B000FFF714FFEDE700BF202E0020282E002018
:10A8C00070B54FF40041AEB00020FBF783FE08B135
:10A8D000FCF7B0F9FBF7ACFDFCF704FC08B1FCF7A2
:10A8E000A9F99A4A9A480021FCF72CFCFEF7D4FA01
:10A8F00008B1FCF79FF9974801F0A0FE1B211A2030
:10A9000000F0D0FB00F03CFCFFF7A2FFFFF7E6FEF3
:10A9100000F05EFC00F08EFD8F4801F08FFEFFF727
:10A92000F9FEFFF7B3FF00F03BFC8C4801F086FE18
:10A9300005F09AF908B1FCF77DF9002303A901207D
:10A94000039305F061FA08B1FCF774F903A805F068
:10A9500005FB08B1FCF76EF9112381488DF808302A
:10A9600005F024FE7E4982B202A8FFF716FE08B168
:10A97000FCF760F90021082203A805F0C2FD79491F
:10A980004FF0C87303A8CDE90313FFF704FE08B125
:10A99000FCF750F97448002103F086FA08B1FCF77F
:10A9A00049F9724B7248039303A903F06DFB08B198
:10A9B000FCF740F96F4800F015F9AC22002103A81C
:10A9C00005F09FFD02238DF80C3040F201636A4AC6
:10A9D000ADF80E300123ADF8583017928DF888305D
:10A9E000A02244F25063CDE925236448644B2C93A4
:10A9F00003A902F0C3F808B1FCF71CF95F48012174
:10AA000002F0B9F81C22002103A805F07AFD00230A
:10AA10004FF42032CDE90332ADF81A304FF47022F2
:10AA20008DF81C30574B059208930322564B8DF836
:10AA3000182003A8099302F071FB08B1FCF7FAF89B
:10AA400004F0B6F808B1FCF7F5F80522002103A8D8
:10AA500005F057FD039B03F07C424C4B13430393DB
:10AA60009DF8103023F0030343F0030303A88DF88F
:10AA7000103004F0E7F808B1FCF7DCF8444804F0C3
:10AA8000C9F808B1FCF7D6F8FFF7CEFD4148424DB2
:10AA900001F0D4FD142445F001054FF47A40A84795
:10AAA000013CFAD13D4E3E4D324C3368012BFCD176
:10AAB0002B68012BF9D1FFF711FE00236846CDE981
:10AAC0000033CDE902332B60FFF76DFD2A2000F043
:10AAD000ADFB01902C2000F0A9FB02902B2000F090
:10AAE000A5FB69460390204600F044FA02A92046DF
:10AAF00000F064FA01A9204600F084FA03A9204678
:10AB000000F0A4FA274B1B78C3B1274B1B68012B1D
:10AB100008D1264B1A78264B022AD96811D1186819
:10AB200001F0F0FB234A138801339BB2642B13809E
:10AB300004D1214B0121196000231380FFF7EAFDA6
:10AB4000B3E7032A0CBF58689868E9E7E9A6020052
:10AB5000582103008D200300B6200300E1200300EC
:10AB6000112103005000A000BC2D0020B9A5020057
:10AB7000D02D0020FC2D0020C4220020042D002018
:10AB8000DDA50200BDA50200D9A602003107100311
:10AB900045A602002621030050210300F82C0020C6
:10ABA000282E0020BC220020D822002018230020BC
:10ABB000E02C0020242E0020FC2C0020A8DF704771
:10ABC000AADF7047AEDF704762DF70470388102B43
:10ABD00002D0112B03D0704783880B8070474FF64B
:10ABE000FF73FAE72DE9F047B84B9AB006AA03F1D4
:10ABF000100604461746B14618685968154603C53D
:10AC00000833B3422A46F7D14BF201030DF112018A
:10AC10003846ADF81030FFF7D7FF08B1FCF70AF857
:10AC200022464FF6FF7322F8023B04A90120FFF7EA
:10AC3000C5FF08B1FBF7FEFF0AAAA44B90461868AF
:10AC40005968154603C508334B452A46F7D14CF2DF
:10AC500001030DF116014046ADF81430FFF7B4FFC3
:10AC600008B1FBF7E7FF1C22002113A805F049FCFF
:10AC70009DF84C3002AD23F00A0343F00A0303228F
:10AC8000002128468DF84C3005F03BFC9DF80A3039
:10AC90001895012767F342038DF80A309DF84C3070
:10ACA00003AE43F0100341F2111A03220021304693
:10ACB0008DF84C30ADF808A005F023FC9DF80E305F
:10ACC000ADF80CA067F34203142200210EA88DF802
:10ACD0000E3005F016FC05ABCDE90E360223ADF8BB
:10ACE0004430ADF8403043F21243ADF8043001ABCC
:10ACF00012936088231D0EAA13A9FFF761FF08B104
:10AD0000FBF798FF714B464618685968324603C2F4
:10AD100008334B451646F7D14CF202030DF11601EC
:10AD20004046ADF81430FFF74FFF08B1FBF782FF44
:10AD30001C22002113A805F0E4FB9DF84C3023F001
:10AD40000A0343F00A030322002128468DF84C3001
:10AD500005F0D7FB9DF80A301895012767F34203E9
:10AD60008DF80A309DF84C3003AE43F0100341F2E9
:10AD7000111A0322002130468DF84C30ADF808A09E
:10AD800005F0BFFB9DF80E30ADF80CA067F3420351
:10AD9000142200210EA88DF80E3005F0B2FB05AB91
:10ADA000CDE90E360623ADF844300223ADF840302D
:10ADB00043F21243ADF8043001AB1293608804F102
:10ADC0000C030EAA13A9FFF7FBFE08B1FBF732FF35
:10ADD0003E4B464618685968324603C208334B4515
:10ADE0001646F7D14CF203030DF116014046ADF8BB
:10ADF0001430FFF7E9FE08B1FBF71CFF1C2200210D
:10AE000013A805F07EFB9DF84C3023F00A0343F0B5
:10AE10000A030322002128468DF84C3005F071FB0F
:10AE20009DF80A301895012666F342038DF80A3022
:10AE30009DF84C3041F2111743F01003032200211A
:10AE400003A8ADF808708DF84C3005F05AFB9DF85A
:10AE50000E30ADF80C7066F34203142200210EA8E8
:10AE60008DF80E3005F04DFB03AB0F930623ADF8C4
:10AE700044300223ADF8403043F2124305AFADF841
:10AE8000043001AE60880E9704F114030EAA13A9D2
:10AE90001296FFF795FE08B1FBF7CCFE0B4BC446AC
:10AEA00018685968624603C208334B459446F7D187
:10AEB0004CF204030DF116014046ADF81430FFF7D3
:10AEC00083FE28B1FBF7B6FE02E000BF5C21030061
:10AED0001C22002113A805F014FB9DF84C3023F030
:10AEE0000A0343F00A030322002128468DF84C3060
:10AEF00005F007FB9DF80A3018954FF0010868F33C
:10AF000042038DF80A309DF84C3041F2111943F09C
:10AF100010030322002103A88DF84C30ADF80890EF
:10AF200005F0EFFA9DF80E30ADF80C9068F342038F
:10AF3000142200210EA88DF80E3005F0E2FA03ABC2
:10AF40000F930623ADF844300223ADF8403043F2AE
:10AF50001243ADF8043060880E9704F11C030EAA6A
:10AF600013A91296FFF72CFE08B1FBF763FE1AB087
:10AF7000BDE8F08730B502884FF6FF739A4287B07C
:10AF800004460D4618D002230021102202A8ADF875
:10AF9000063005F0B6FAA388ADF8083001238DF825
:10AFA0000A300023ADF80C3020880DF1060302A909
:10AFB000CDE90435FFF706FE07B030BD30B5028895
:10AFC0004FF6FF739A4287B004460D4618D0062309
:10AFD0000021102202A8ADF8063005F092FAA389EC
:10AFE000ADF8083001238DF80A300023ADF80C309D
:10AFF00020880DF1060302A9CDE90435FFF7E2FD33
:10B0000007B030BD30B502884FF6FF739A4287B063
:10B0100004460D4618D006230021102202A8ADF8E0
:10B02000063005F06EFAA38AADF8083001238DF8DA
:10B030000A300023ADF80C3020880DF1060302A978
:10B04000CDE90435FFF7BEFD07B030BD30B502884D
:10B050004FF6FF739A4287B004460D4618D0062378
:10B060000021102202A8ADF8063005F04AFAA38BA1
:10B07000ADF8083001238DF80A300023ADF80C300C
:10B0800020880DF1060302A9CDE90435FFF79AFDEA
:10B0900007B030BD037813B9014B01221A70704715
:10B0A0002C2E00201FB54FF0CC7202920322CDE966
:10B0B000001000238DF80C200848094AADF80D3027
:10B0C00069468DF80F30FEF78FFC08B1FBF7B2FD33
:10B0D0000448FEF71BFE05B05DF804FB6C2103007D
:10B0E00095B002007021030037B50025084C00958B
:10B0F00013460A46014607482570FEF755FF08B17A
:10B10000FBF798FD2378002BFCD003B030BD00BFC7
:10B110002C2E002070210300F0B5104C85B01F4686
:10B12000002323700123054616468DF80F10009367
:10B1300001460DF10F020A48FEF736FF2378002B77
:10B14000FCD048B920703B46054832462946FEF7F8
:10B1500046FF2378002BFCD005B0F0BD2C2E00203C
:10B160007021030038B5054D0A2445F001054FF460
:10B170007A40A847013CFAD138BD00BF80210300C6
:10B18000064B19684FF0A04201F5E073032042F826
:10B19000230001238B40C2F808357047C0220020ED
:10B1A000044B1A68012393404FF0A042C2F80C35BB
:10B1B000FFF7D8BFC0220020044B1A680123934038
:10B1C0004FF0A042C2F80835FFF7CCBFC0220020E4
:10B1D00070B50B4E336801244FF0A04504FA03F319
:10B1E000C5F80C35074B4FF4F0602343984733689C
:10B1F0009C40C5F80845BDE87040FFF7B3BF00BFED
:10B20000C02200208021030007B50B0C042249BA9C
:10B210008DF80400ADF8061058200DEB02018DF8F2
:10B220000530FFF761FF03B05DF804FB13B503239E
:10B230000446014601AA5820FFF76EFFBDF804003E
:10B240009DF8063040BA2A3C80B2052C43EA002023
:10B2500005D8830244BF6FEA80206FEA902002B0D5
:10B2600010BD07B504224FF080730DEB020158208A
:10B270000193FFF739FF03B05DF804FB07B5042223
:10B2800000230DEB020158200193FFF72DFF03B0BF
:10B290005DF804FB08B5FFF7F1FF64210120FFF71B
:10B2A000B3FF40F28F110220FFF7AEFF40F22231D0
:10B2B0000320FFF7A9FF40F2B1410420FFF7A4FFEC
:10B2C00040F2F5110520FFF79FFF4FF4487106206B
:10B2D000FFF79AFF40F286310720FFF795FF40F213
:10B2E000B1410820FFF790FF00210920FFF78CFFF4
:10B2F00040F28F110A20FFF787FF40F217510B2011
:10B30000FFF782FF40F242610C20FFF77DFF40F221
:10B3100099110D20FFF778FF40F2BC510E20FFF786
:10B3200073FF40F2C6510F20FFF76EFF40F6E911A0
:10B330001020FFF769FF40F6F3111120FFF764FFBB
:10B3400040F616611220FFF75FFF4FF46261132091
:10B35000FFF75AFF41F243211420FFF755FF40F257
:10B3600091111520FFF750FF40F297111620FFF7BB
:10B370004BFF40F2BE511720FFF746FF40F2C45189
:10B380001820FFF741FF40F6EB111920FFF73CFFB3
:10B3900040F6F1111A20FFF737FF40F618611B2025
:10B3A000FFF732FF40F61E611C20FFF72DFF40F231
:10B3B00091113620FFF728FF4FF448713720FFF72F
:10B3C00023FF49F63F411D20FFF71EFF40F2031106
:10B3D0001E20FFF719FF48F203012020FFF714FF9A
:10B3E00003212120FFF710FF00213A20FFF70CFF77
:10B3F00043F2CF012220FFF707FF0D492320FFF77B
:10B4000003FF20213120FFF7FFFE00213920FFF745
:10B41000FBFE41F263513220FFF7F6FE49F61F11A1
:10B420003320FFF7F1FEBDE80840FFF71ABF00BF69
:10B430001842120008B5FFF7B3FEFFF7BDFEFFF795
:10B44000C7FEBDE80840FFF725BF0000214A22499A
:10B450009368023810B5214C062833D8DFE800F095
:10B460002B241D16110A040043F007039360236880
:10B47000CB6110BD23F0070343F0060393606368BC
:10B48000F6E723F007039360A368F1E723F00703CF
:10B4900043F001039360E368EAE723F0070343F016
:10B4A000020393602369E3E723F0070343F00303F8
:10B4B00093606369DCE723F0070343F004039360C0
:10B4C000A369D5E723F0070343F005039360E3691D
:10B4D000CEE700BF302E0020682F0020DC220020A5
:10B4E0000D4A9368C82823F0380311460ED007DCB4
:10B4F000322809D064280CD043F008038B607047D1
:10B50000FA28F9D143F030039360704743F02003E9
:10B51000FAE743F01003F7E7302E0020384B70B500
:10B5200001251D60374B384E9D60C3E90055374BF0
:10B530001D70374B1A69374B1A60374B06221A6059
:10B54000364B19221A60364B32206421C3E90201BE
:10B55000C821C3E900221961324B00241C70324B10
:10B56000B4601C70314B1C70314B1C70314B1C6033
:10B57000314BC3E90044314B0221C3E90111304989
:10B58000DA610C6003211970C3E90445DC609D6138
:10B59000336823F03F033360F36823F4FF4323F061
:10B5A000600321462046F360FFF72EFE316822201B
:10B5B000FFF72AFEB1682120FFF726FEF1683A2046
:10B5C000FFF722FE29462046FFF71EFE1D4A1E4BAE
:10B5D00013601E4A13601E4A13601E4B1E4A1A60F7
:10B5E0001E4B02F5BD1202F615621A601C4B1D4A75
:10B5F0001A601D4B4FF480121A601C4B1C6070BD0A
:10B60000D82200207C2E0020302E0020182300207D
:10B6100000230020FC22002014230020A02E002064
:10B62000DC220020202F0020702E00208C2E0020F5
:10B63000092F00200C2F0020242F0020682F00202D
:10B64000642F0020A82E0020703D0200B02E0020A4
:10B65000AC2E0020A42E0020F5280400942E0020FB
:10B66000902E00208FC21D00142F0020882E002055
:10B670002DE9F0433C4DDFF8FC908C46964606469B
:10B680001F460FCD89B06C460FC495E80F0084E8C3
:10B690000F000EF1FF30C0B208AB84002344022833
:10B6A00053F8201C314B8CBF9CFBF1F101FB0CF1DA
:10B6B0000029B6BF494219601960D3F80080DFF84D
:10B6C000B8E02B4BDEF80C501A68DEF81430ACBF33
:10B6D0004FF0010C4FF0FF3C4FEAC801B1FBF2F113
:10B6E0000431C908BCF1010F05FB03F3C9F80010D0
:10B6F0004D462CD119440F2902DDC3F10F012960F9
:10B7000029680529C4BF0521296008A92D680C44B2
:10B7100002FB158254F8201C02280CFB02F28CBF9D
:10B720004A4392FBF1F2DEF81000DEF81810BCF18B
:10B73000010F00FB01F010D1012F2B4400D1284450
:10B74000C6E900303046B26009B0BDE8F083591A4E
:10B750000F31D5DA03F10F01D1E7012FA3EB050378
:10B76000EED1401BECE700BF88210300042F00202E
:10B77000D02200204C2E0020682F0020F0B57C4DF8
:10B780000E460FCD8DB004AC0FC495E80F0084E8D1
:10B790000F00784B784C1B68002B00F05081237809
:10B7A000112B51D8DFE813F0120049005A00500065
:10B7B0006B005000500050005000C600D2005000F6
:10B7C000500050005000500006014B016B4E6C4B76
:10B7D00072681A606B4B6C4D19782B68022922D164
:10B7E00023F47C6343EA82132B60684B3078187033
:10B7F000FFF72CFEF069FFF773FE654B1E687EB9FC
:10B8000031463046FFF700FD29682220FFF7FCFC97
:10B81000A9682120FFF7F8FC01213046FFF7F4FC6E
:10B820000123237010E003290BBF23F47C3323F0A2
:10B830003F0343EA02331343D6E7564A13880133E2
:10B840001BB2022B02D813800DB0F0BD0023138071
:10B85000514A1380514A13600223E2E74E484F4A8F
:10B860000388116801331BB20E44082B0380166055
:10B87000EAD10023F610038016600423D1E7434A7F
:10B88000464912780968464E464D01A80123FFF744
:10B89000EFFEDDE901234449002AADBF012000206D
:10B8A00052420860B8BF0860002B40483260B5BF04
:10B8B0005B42012200220260B8BF02602B600A686E
:10B8C0003368296843EA0212036841EA03112D4BE9
:10B8D000187802284FEA812321D143EAC23343EA90
:10B8E000010242EA4113284FF968090D09050B438B
:10B8F00000210846FB60FFF787FCF9683A20FFF754
:10B9000083FC01210020FFF77FFC32682B68134382
:10B91000274B14BF012200221A60092381E7032864
:10B9200043EAC1330BBF13430B4343EA411343EADA
:10B930004213D8E7174A138801331BB2022B82D96E
:10B9400000231380154A13600A236AE71248134A3A
:10B950000388116801331BB20E44082B0380166064
:10B960007FF472AF0023F61003801660102358E7AF
:10B97000882103007C2E0020702E0020682F0020DC
:10B98000982E002018230020302E0020102F002099
:10B990000C2F0020882F00201A2F0020B42E00200A
:10B9A000582E0020502E0020202300201C23002091
:10B9B000742E002029482A4D03682D68002BBCBF37
:10B9C0005B420360274B006819780139C9B20CAAA1
:10B9D00002EB8102012952F8202C94BF90FBF2F176
:10B9E00000FB02F1204A1160204A12682A448A4270
:10B9F0002CBF102200221E4D1E494A60296921F0E9
:10BA000010010A432A611C4A12781A701B4A1268F4
:10BA10005A6000229A601A4A1268DA60194A12685B
:10BA20005200013A5A61184A12681A61174A12689C
:10BA30005200013A9A61164B18601123F1E6154B3A
:10BA40001B68002B144B0CBF012202221A7000232A
:10BA50002370124B02221A70F6E600BFB42E0020AB
:10BA6000D0220020682F0020002F0020CC220020B0
:10BA7000302E0020242F0020102F0020982E002090
:10BA8000582E002020230020502E00201C230020B0
:10BA9000642F00200C2F0020202F0020092F0020D1
:10BAA0002DE9F04F7E4D7F4E84460F460FCD8BB073
:10BAB00002AC0FC495E80F0084E80F007A4C7B4B72
:10BAC00025691D607A4BD4F818802178C3F800806E
