:020000022000DC
:1060000000000120396202009162020093620200E6
:10601000956202009762020099620200000000008F
:106020000000000000000000000000009B62020071
:106030009D620200000000009F620200A162020057
:106040001DBD0200A762020049CB020049DB02002D
:10605000AD620200AF62020069C80200F5DB020017
:106060006DDF0200B7620200B9620200BB6202008B
:10607000BD620200BF620200C1620200C362020090
:10608000C5620200A9780200C9620200CB62020068
:10609000E9780200CF62020051BA0300D362020025
:1060A000D5620200D762020085DF0200DB620200D7
:1060B000DD620200DF620200A3620200A36202004E
:1060C000E1620200E3620200E5620200E7620200B0
:0C60D000E9620200EB620200ED620200D7
:1060DC00354936480A1A02D0072291438D46344975
:1060EC0034480A1A06D00722914381F30988022208
:1060FC0082F3148830483149314A00F044F8314871
:10610C003149324A00F03FF831483249324A00F006
:10611C003AF832483249334A00F035F832483349BC
:10612C00334A00F030F833483349344A00F02BF846
:10613C0033483449344A00F026F8344834490022B4
:10614C0000F02CF833483449002200F027F833488B
:10615C003349091A082902DB002202604160314AE6
:10616C0090471F481F49884205D00268043003B489
:10617C00904703BCF7E700208646EC460020002140
:10618C00294A9047FEE7884207D0521A05D0037877
:10619C0001300B700131013AF9D17047884202D0BD
:1061AC0002700130FAE770470000012000E0002087
:1061BC00000001200000012048F103008022002093
:1061CC0047230020F0620200F0620200F8D20300C4
:1061DC0048F10300802200208022002090D403008C
:1061EC0090D4030090D4030090D4030090D4030007
:1061FC0090D4030090D4030090D4030048F1030022
:10620C0010F20300482300204823002048230020DC
:10621C0098360020983600209C3600209C360020B2
:10622C009C5600205D6202002DF902000F484FF0D1
:10623C000701884385460E4880470E48016841F4A3
:10624C0070010160BFF34F8FBFF36F8FFFF740BF3B
:10625C0009480A490A4A884207D0521A05D00378DD
:10626C0001300B700131013AF9D170470000012067
:10627C009DAE020088ED00E030D403002022002007
:10628C0080220020FEE7FEE7FEE7FEE7FEE7FEE7E2
:10629C00FEE7FEE7FEE7FEE7FEE7FEE7FEE7FEE7CA
:1062AC00FEE7FEE7FEE7FEE7FEE7FEE7FEE7FEE7BA
:1062BC00FEE7FEE7FEE7FEE7FEE7FEE7FEE7FEE7AA
:1062CC00FEE7FEE7FEE7FEE7FEE7FEE7FEE7FEE79A
:1062DC00FEE7FEE7FEE7FEE7FEE7FEE7FEE7FEE78A
:0462EC00FEE700BF0A
:1062F000004870479036002000B583B001900091AF
:10630000019B1B681B6800990198984700BF03B068
:106310005DF804FB00B583B00190019B1B685B68CE
:106320000198984700BF03B05DF804FB00B583B047
:106330000190019B1B689B680198984700BF03B0C0
:106340005DF804FB82B00190019B01225A7200BFEC
:1063500002B0704782B00190019B5B7A184602B090
:1063600070470000024A034BD31ADB0818467047F7
:10637000F0D3030058D3030000B585B0019000911D
:1063800000238DF80F30019B1B7803F00303DBB271
:10639000002B06D0019B1B7803F00403DBB2002B1B
:1063A00043D0019B1B7803F00403DBB2002B27D002
:1063B000019B1B78C3F30103DBB2012B02D0022B3C
:1063C0000CD017E0009B1B68019A1288C2F383125D
:1063D000D2B213449A1C009B1A6023E0009B1B68F6
:1063E000019A5288C2F3891292B213449A1C009BFC
:1063F0001A6017E010494FF4A47008F067FA11E032
:10640000009B1A68019B5B88C3F389139BB21946F2
:10641000019B1B88C3F389139BB20B4413445A1C82
:10642000009B1A6001238DF80F309DF80F3018463D
:1064300005B05DF804FB00BFA8D4030000B58BB025
:106440000023ADF826303E4803F016FD3D4803F02A
:1064500013FD3D4B5B6804933B4B9B680693049A8A
:10646000069B134002339B00374A134404330893BE
:1064700004AB19460898FFF77FFF0346002B09D0AD
:10648000049A069B134002339B002F4A13440433A3
:106490000893EDE700BF0023079311E0049B5A1C0B
:1064A0000492069A1340079A920001A90A442649C9
:1064B00002339B000B445B681360079B0133079317
:1064C000079B012BEAD99DF80430C3F30103DBB22B
:1064D000012B10D0022B1CD1BDF80A30ADF82630AC
:1064E000BDF80630C3F389139BB203339A08049BAB
:1064F0001344049313E0BDF80A30ADF82630BDF81C
:106500000430C3F38313DBB21A46049B1344049391
:1065100005E00E494FF4C27008F0D8F900BF0948F1
:1065200003F0B6FC0590059B002B02D0049B064AA5
:106530005360BDF8263018460BB05DF804FB00BF71
:10654000302800202C28002018240020A8D4030084
:1065500000B585B00021074803F0C3FB0390039BFF
:106560000293029B83F310030193019B184605B02D
:106570005DF804FB3428002000B589B00390029137
:1065800001920093039B1B0C0793FFF7E1FF06901A
:10659000FFF7E8FE0246079B934204D3214940F2ED
:1065A000A91008F093F9069B1904009B5A1C0A9B3A
:1065B0001340079A0A431C4902339B000B445A605C
:1065C000009A0A9B134002339B00174A134404337A
:1065D0000593039B03F00703D9B2059A137861F37F
:1065E000C5031370019B03F00F03D9B2059A1388FA
:1065F00061F389131380029BC3F31501059A136895
:1066000061F39F231360059A1378012161F301035D
:106610001370059A13786FF38203137000BF09B0EB
:106620005DF804FBA8D403001824002000B58DB049
:106630000390029113468DF80730039B02330A93AF
:1066400001238DF8273000238DF81B300DF11B033B
:10665000184601F081FA404B1A68029B1A603E4BC3
:106660009A683D4B59683C4B1B68CB1A1344013365
:106670000B9314E00121394803F0C2FBFFF7DEFE63
:1066800007900799354803F0BBFB334B9A68324BB0
:106690005968314B1B68CB1A134401330B930A9A88
:1066A0000B9B9A42E6D89DF82730002B48D0002358
:1066B00005939DF80730002B17D09DF81430012268
:1066C00062F301038DF814309DF8143043F0040395
:1066D0008DF81430039B03F00F03DAB2BDF81430C9
:1066E00062F38913ADF8143016E09DF814300222DD
:1066F00062F301038DF814309DF8143043F0040365
:106700008DF81430039BC3F309039AB2BDF8163019
:1067100062F38F13ADF816300F4B1A680E4B9B685F
:10672000134002339B000C4A134404330893059A28
:10673000089B1A60084B1A680A9B1344064A1360A8
:106740009DF81B30184601F01DFA9DF827301846B9
:106750000DB05DF804FB00BF182400203428002091
:1067600000B58BB005900491039202931F4B9B6878
:10677000079306AB012219460298FFF757FF03461D
:10678000002B24D0069B023309930023089311E0C9
:10679000089B9B00039A1A44099B591C099107996D
:1067A0000B401268114902339B000B445A60089B4E
:1067B00001330893089A029B9A42E9D3069A079BF1
:1067C00000931346029A04990598FFF7D5FE074BEC
:1067D00093F82034002B05D000BF00F07BF803466F
:1067E000002BFAD100BF0BB05DF804FB1824002089
:1067F00000B583B001900091002300220099019818
:10680000FFF7AEFF00BF03B05DF804FB00B587B033
:10681000039002910192019B059305AA012302991D
:106820000398FFF79DFF00BF07B05DF804FB00B5BC
:1068300087B00390029101920093019B0493009B07
:10684000059304AA022302990398FFF789FF00BF6A
:1068500007B05DF804FB00B589B003900291019286
:106860000093019B0593009B06930A9B079305AA3F
:10687000032302990398FFF773FF00BF09B05DF887
:1068800004FB00B58BB00390029101920093019B31
:106890000593009B06930C9B07930D9B08930E9BFF
:1068A000099305AA052302990398FFF759FF00BF32
:1068B0000BB05DF804FB0000054B5A68044B1B68E5
:1068C0009A420CBF01230023DBB21846704700BF79
:1068D0001824002000B599B0FFF7EEFF0346002B07
:1068E00001D00023B6E1994B0022C3F81824BFF36E
:1068F0004F8F00BF954B5B680493944B9B6810933C
:10690000049A109B134002339B00904A13440433B3
:106910001293002317930023169300230F9304ABC5
:1069200019461298FFF728FD0346002B14D0874B19
:106930001A68049B9A4205D8844B1B68834A5360AB
:10694000002387E1049A109B134002339B007F4A87
:10695000134404331293E2E700BF0023159311E0C0
:10696000049B5A1C0492109A1340159A920001A994
:106970000A44764902339B000B445B681360159B05
:1069800001331593159B012BEAD99DF8043003F0D0
:106990000303DBB2022B40F09C80BDF80630C3F34A
:1069A00089139BB20D93BDF80630C3F389139BB2D4
:1069B000502B28BF50239BB20C930C9BC3F30903AD
:1069C0009AB2BDF8063062F38F13ADF806300C9B17
:1069D00008330B939DF80430C3F3C203DBB20F936B
:1069E0000B995B4804F01CF81790179B002B00F0E4
:1069F000D180179804F0A5F801A9169B08221798D2
:106A000004F04AF9169B08331693049BDA43109B53
:106A1000134001339B000A930C9A0A9B9A4242D975
:106A20000A9B002B08D0049A109B134002339B0052
:106A3000464A1344043300E0464B08930A9B002B5C
:106A400002D00A9BDBB201E00C9BDBB28DF81F3059
:106A50000A9B002B01D03F4B00E0002306930A9BCA
:106A6000002B06D00C9BDAB20A9BDBB2D31ADBB246
:106A700000E000238DF817309DF81F20169B089921
:106A8000179804F009F99DF81F30169A13441693CD
:106A9000069B002B16D09DF81720169B0699179879
:106AA00004F0FAF80EE0049A109B134002339B00A6
:106AB000264A134404330993169B0C9A0999179894
:106AC00004F0EAF80D9B03339A08049B13440493E3
:106AD00060E09DF8043003F00303DBB2012B59D1D1
:106AE000BDF80430C3F38313DBB2062B28BF0623A3
:106AF000DAB2BDF8043062F38913ADF80430BDF8A2
:106B00000430C3F38313DBB202330E939DF80430D9
:106B1000C3F3C203DBB20F930E9B9B0019460C48D4
:106B200003F07EFF1790179B002B33D0179804F0CB
:106B300008F801A9169B0822179804F0ADF8169BD7
:106B400008331693002315931BE000BF1824002080
:106B5000F0D3030024240020049B5A1C0492109AB2
:106B6000134002339B003D4A1344191D169B042217
:106B7000179804F091F8169B04331693159B013374
:106B80001593BDF80430C3F38313DBB21A46159B8B
:106B90009342E1D3179B002B3FD0304BD3F81034F6
:106BA00014932E4BD3F81834002B1AD0179803F0F7
:106BB000D7FF49E000238DF84F301498FFF7CAFB48
:106BC0000346002B02D001238DF84F309DF84F3043
:106BD000002B03D017991498FFF78EFB149B5B686A
:106BE0001493149B002BE5D1179803F0B9FF0023F1
:106BF0008DF803300DF10303184600F0ADFF174B7D
:106C0000D3F81834002B02D1049B144A53609DF82A
:106C10000330184600F0B6FF16E0104BD3F81034DE
:106C2000119305E01198FFF781FB119B5B681193AD
:106C3000119B002BF6D10A4B1B881B0443F0020367
:106C400008491846FFF7D4FDFFF736FE034683F0E8
:106C50000103DBB2184619B05DF804FB18240020CC
:106C6000402200200CD5030000B583B00C4BD3F8B4
:106C7000103401930A4B012283F8202408E0019884
:106C8000FFF760FB0198FFF745FB019B5B680193F1
:106C9000019B002BF3D100BF00BF03B05DF804FBE4
:106CA0001824002086B003900291019201238DF8F0
:106CB00017309DF81730214A039B13601F4A029B2F
:106CC00053601E4A019B9360039B44F2010293426E
:106CD00013D0039B44F20202934221D1019B174A35
:106CE000D360164BDB681B881A46144B9A61134B12
:106CF000DB685B68114AD36112E0019B0F4A1361A4
:106D00000E4B1B699B680D4A53610C4B1B691B683A
:106D10000A4A9361094B1B695B68084AD36100BF4B
:106D200072B600BF00BF9DF81730DBB2002BFAD15E
:106D300062B600BF00BF06B0704700BF3C2800200D
:106D400000B583B002900091019244F201007146B7
:106D50006A4600F003F803B000BD00BF30B58BB049
:106D600007900691059272B600BFFFF77DFF00BF46
:106D7000FFF7B0FD0346002BFAD1079B44F2020255
:106D800093422BD0079B44F20202934261D8079BA7
:106D900044F20102934232D0079B44F20102934233
:106DA00057D8079B012B05D0079B41F20102934264
:106DB0000AD04EE0344B1B881B0443F001033349D7
:106DC0001846FFF715FD4FE02F4B1B881B0443F0BF
:106DD00001032F491846FFF70BFD45E0059B09937A
:106DE000294B1B881B0443F001031846099B5B6871
:106DF0001A46099B1B882749FFF719FD34E0059BBC
:106E00000893214B1B881B0443F001031D46089B7C
:106E10009C68089B9B68184603F0D8FF03461846F9
:106E2000089B5B681946089B1B68069A02920193AF
:106E300000910346224618492846FFF722FD124BCF
:106E40001B881B0443F0010314491846FFF7D0FCCC
:106E50000AE00D4B1B881B0443F00103069A1049FE
:106E60001846FFF7D3FC00BF0E4B1B6803F001036D
:106E7000002B00D000BE059A06990798FFF712FF75
:106E800000BF0BB030BD00BF4022002020D5030062
:106E900040D5030064D5030080D50300A8D50300C6
:106EA000BCD50300F0ED00E082B003468DF807305A
:106EB0009DF8073003F01F0205499DF907305B0973
:106EC000012000FA02F241F8232000BF02B070470F
:106ED00000E100E082B003468DF807309DF80730EE
:106EE00003F01F0206499DF907305B09012000FAF3
:106EF00002F2203341F8232000BF02B0704700BFE8
:106F000000E100E082B003468DF807309DF80730BD
:106F100003F01F0206499DF907305B09012000FAC2
:106F200002F2403341F8232000BF02B0704700BF97
:106F300000E100E082B003468DF807309DF807308D
:106F400003F01F0206499DF907305B09012000FA92
:106F500002F2603341F8232000BF02B0704700BF47
:106F600000E100E082B0034600918DF807309DF902
:106F70000730002B0CDA009BDAB20C499DF8073081
:106F800003F00F03043B5201D2B20B441A7609E01E
:106F9000009BDAB206499DF907305201D2B20B4488
:106FA00083F8002300BF02B0704700BF00ED00E08F
:106FB00000E100E000B585B00190019B002B0AD0F4
:106FC000074B43F001030393019B9B010293039B37
:106FD0000298984700E000BF05B05DF804FB00BFD1
:106FE000E0D5030000B583B00190064A019BC2F8CA
:106FF000083507211120FFF7B5FF00BF03B05DF88A
:1070000004FB00BF0010014008B50D4B4FF4803267
:10701000C3F844230A4B4FF48032C3F804231120F1
:10702000FFF788FF1120FFF73FFF054B01221A6091
:107030002F20FFF7BFFF034B01221A7000BF08BDCE
:10704000001001407A29002008B51120FFF742FF07
:107050000E4B4FF48032C3F848230C4B4FF4803270
:10706000C3F80823094B01225A602F20FFF7A2FF23
:10707000064B01229A60064B00221A602F20FFF770
:1070800099FF044B00221A7000BF08BD0010014098
:107090006C2900207A290020024BD3F804351846C9
:1070A000704700BF0010014082B001900091019A2A
:1070B000009BD31A23F07F43184602B070470000AC
:1070C00082B00190034A019BC2F8403500BF02B074
:1070D000704700BF0010014086B00190284B1B682C
:1070E000002B03D1264A019B136045E0019B1A68DF
:1070F000234B1B681B689A4210D8214B1B681968E8
:10710000019B1A681E4B1B688A1A1A601C4B1A686E
:10711000019BDA611A4A019B13602DE0019B1B68F9
:107120000393174B1B680593154B1B68049309E0E9
:10713000049B1B68039AD31A0393049B0593049B37
:10714000DB690493049B002B04D0049B1B68039A07
:107150009A42EDD8049B002B05D0049B1A68039B30
:10716000D21A049B1A60019B039A1A60019B049A2D
:10717000DA61059B019ADA6100BF06B0704700BF73
:107180006829002000B587B001902A4B1B68039343
:10719000284B1B680593059B049308E0049A019B08
:1071A0009A4208D0049B0593049BDB690493049BDB
:1071B000002BF3D100E000BF049B002B01D1002382
:1071C00033E0059A049B9A4214D11A4B1B68DB6981
:1071D000184A1360174B1B68002B0BD1164B01226A
:1071E0009A60164B00221A60154B01221A702F204C
:1071F000FFF7E0FE049B1B680293049BDA69059B82
:10720000DA61059BDB690493049B002B05D0049B8A
:107210001A68029B1A44049B1A60064B1B68039A67
:107220009A4214BF01230023DBB2184607B05DF871
:1072300004FB00BF68290020001001406C290020D9
:107240007B29002008B51120FFF75CFE00BF08BDB8
:1072500008B51420FFF756FE00BF08BD00B583B087
:107260000190019B5B69019A92691046984700BFA3
:1072700003B05DF804FB000000B585B02B4B1B6824
:10728000002B4ED000230193FFF706FF0246284B48
:107290001B6819461046FFF707FF0290234B1B6837
:1072A00003931DE0039B1B68029A9A421CD3039B25
:1072B0001B68029AD31A0293039B1B68019A13441A
:1072C0000193039B0093039BDB690393009B1B7C4F
:1072D000002B05D0009B00221A740098FFF7BEFF18
:1072E000039B002BDED100E000BF124B1A78124B3B
:1072F0001B789A420CD1104B1B780133DAB20E4B3B
:107300001A700D4B1B78022B02D10B4B00221A7006
:10731000094B1B781946094A019B42F82130FFF7B7
:1073200097FF00BF05B05DF804FB00BF682900208F
:107330006C2900207829002079290020702900205C
:1073400082B00190184B1A78184B1B789A4223D0C0
:10735000154B1B780133DAB2134B1A70124B1B78A2
:10736000022B02D1104B00221A700F4B1B781A46C9
:107370000F4B53F82220019B1A60019B1A680D4B9A
:107380001B6813440B4A13600A4B1B6823F07F43AE
:10739000084A1360012303E0019B00221A600023C6
:1073A000184602B0704700BF7829002079290020D4
:1073B000702900206C29002088B00390029101926E
:1073C0000023079338E0204B1B680693069B1B683D
:1073D000039A9A4206D2069B1A68039BD21A069B0E
:1073E0001A602EE0069B1B68039AD31A0393069B30
:1073F0001B68079A13440793069B00221A60124BDE
:107400001B680593069BDB690F4A1360069BDB68CC
:10741000002B11D0029A079B134423F07F42069B56
:107420005A60069BDA68069B9A60019B1A68069B65
:10743000DA61019B059A1A60034B1B68002BC2D1CD
:1074400000BF00BF08B070476829002000B589B0B0
:10745000019000238DF81F30664B1B680593AAE04E
:10746000019B002B05D0019B0693069BDB690193D2
:1074700061E0614B1B781A4613465B001344DB0046
:107480005D4A1344043304935B4B1B780133DAB237
:10749000594B1A70584B1A78574B9B789A4202D125
:1074A000554B00221A70049B5B680693049B1B7863
:1074B000032B1ED0032B7EDC012B1FD0022B7AD195
:1074C000049B5B681846FFF75DFE0346002B02D065
:1074D00001238DF81F30069B00221A746BE0454B88
:1074E0001B680393039B00221A74039BDB69414AC8
:1074F0001360404B1B68002BF1D15CE000BF069B82
:107500001B7C002B00D056E0049B9A68069B5A60B7
:10751000049BDA68069B9A60049B1A69069BDA60F2
:10752000049B5A69069B9A61344B1B78002B02D04E
:10753000069B00225A60069B5A68314B1B68D31A7F
:1075400023F07F432F4A93420ED8069B5B682C4A58
:10755000126811461846FFF7A7FD0246069B9B6876
:107560001A44069B1A6017E0254B1A68069B5B6855
:1075700019461046FFF798FD0290069B9B68029AF9
:107580009A4206D2069B9A68029BD21A069B1A6000
:1075900002E0069B00221A60069B00225A60069BAE
:1075A00000229A60069B01221A74069B0022DA616F
:1075B0000698FFF791FD019B002B7FF451AF0E4B16
:1075C0001A780D4B5B789A427FF44AAF9DF81F30D2
:1075D000002B04D1074B1B68059A9A4201D0012366
:1075E00000E0002303F00103DBB2184609B05DF8A8
:1075F00004FB00BF682900205C2800207B290020B4
:107600006C290020FEFF7F0010B588B00190274B49
:107610001B68002B44D0254B1B681B680793FFF7A2
:107620003BFD0690224B1B68059305990698FFF7D2
:107630003BFD0346033304931E4B1B7883F0010389
:10764000DBB2002B01D0FFF7DFFC049A079B9342CB
:1076500038BF1346059A13440593059B23F07F43D7
:1076600005930598FFF72CFDFFF716FD039006998B
:107670000398FFF719FD0346DC1C06990598FFF7F0
:1076800013FD03469C420DD9FFF706FD034618463D
:10769000FFF716FD2F20FFF78DFCFFF7D3FD01E06C
:1076A000FFF7D2FC00BF08B010BD00BF6829002062
:1076B0006C2900207A29002000B587B000230193AF
:1076C00000238DF81730194B1B680493184B1B6867
:1076D00003936B461846FFF733FE03468DF80B30D5
:1076E0009DF80B30002B08D0009B01AA0499184686
:1076F000FFF762FE01238DF81730019B1846FFF754
:10770000A5FE0346002B02D001238DF817309DF80B
:107710001730002B02D00398FFF776FF054B0022AD
:107720001A7000BF07B05DF804FB00BF6C29002091
:10773000682900207B29002082B003468DF807309D
:10774000034A9DF80730537000BF02B0704700BF76
:107750005C28002084B00190144B5B7801338DF8D5
:107760000F30124B9B789DF80F209A4202D10023D4
:107770008DF80F300D4B1B789DF80F209A4201D1E8
:1077800000230FE0019B9DF80F201A70074B5B78D8
:107790001A4613465B001344DB00044A13440433C7
:1077A0000293029B184604B0704700BF5C2800207B
:1077B00000B589B0039002910192009300230793D2
:1077C00000238DF816300DF11603184600F0C4F9A9
:1077D0000DF117031846FFF7BDFF0690069B002B1F
:1077E00002D10423079318E0069B01221A70069B1E
:1077F000039A5A60FFF750FC0246069B9A60069B6C
:10780000029ADA60069B019A1A61069B009A5A61F5
:107810009DF817301846FFF78FFF9DF81630184671
:1078200000F0B0F9079B002B01D1FFF711FD079B7A
:10783000184609B05DF804FB00B587B001900B460F
:107840008DF803300023059300238DF80E300DF1E1
:107850000E03184600F080F90DF10F031846FFF7EC
:1078600079FF0490049B002B02D1042305930BE0C5
:10787000049B9DF803201A70049B019A5A609DF89E
:107880000F301846FFF758FF9DF80E30184600F0ED
:1078900079F9059B002B01D1FFF7DAFC059B18460F
:1078A00007B05DF804FB000008B50E4B0022C3F8DA
:1078B00040210C4B0022C3F844210A4B0022C3F89C
:1078C0004821084B0022C3F84C21064B0022C3F884
:1078D0000021044B0022C3F80421FFF7CDFC00BFB8
:1078E00008BD00BF0010014008B5FFF7E5FE00BF6E
:1078F00008BD000008B5FFF7A7FB134B00221A7064
:10790000114B00225A70104B0B229A700F4B002221
:107910001A600F4B00221A700E4B00221A701420AE
:10792000FFF708FB07211420FFF71CFB1420FFF7CB
:10793000BBFA0020FFF756FBFFF7AEFB0346064AF3
:1079400013600023184608BD5C2800206829002029
:1079500078290020792900206C29002086B0039026
:107960000B4601928DF80B30134B9B78002B01D105
:1079700008231EE0019B002B01D1072319E0039B84
:10798000002B01D1072314E0039B1B681B7C002BF9
:1079900001D008230DE0039B1B680593059B002283
:1079A0001A74059B9DF80B205A74059B019A5A6125
:1079B0000023184606B070475C28002000B587B049
:1079C000039002910192039B0593144B9B78002B2B
:1079D00001D108231EE0039B002B01D1082319E0ED
:1079E000029B042B01D8072314E0059B5B69002B45
:1079F00001D108230EE0059B5B7C012B01D1029B8A
:107A000000E000230493019B049A02990598FFF774
:107A1000CFFE0346184607B05DF804FB5C28002043
:107A200000B585B00190019B03930D4B9B78002B13
:107A300001D1082310E0019B002B03D0039B5B695D
:107A4000002B01D1082307E0039B00221A740221B6
:107A50000398FFF7F1FE0346184605B05DF804FBF6
:107A60005C28002008B5FFF717FB0346184608BD41
:107A700082B0EFF310830093009B019372B600BFB6
:107A8000019B184602B0704762B600BF00BF704746
:107A900000B585B00190FFF7EBFF0390164B9B6894
:107AA000002B1BD1144B01229A60144BD3F8802079
:107AB000134B1340104A1360104B114AC3F8802037
:107AC0000E4BD3F884300C4A53600C4B4FF0FF320E
:107AD000C3F88420019B00221A7002E0019B01225E
:107AE0001A70039B002B01D1FFF7CEFF002318462D
:107AF00005B05DF804FB00BF7C29002000E100E038
:107B0000FC06FFBD00B585B003468DF80730104B6D
:107B10009B68002B16D09DF80730002B12D1FFF781
:107B2000A7FF03900B4A0A4B1B681360094A084BD6
:107B30005B685360064B00229A60039B002B01D1C7
:107B4000FFF7A2FF0023184605B05DF804FB00BF55
:107B50007C29002000E100E000B583B0019000F036
:107B60002BF80346012B03D00549432006F0AEFE57
:107B70000198FFF78DFF00BF03B05DF804FB00BF65
:107B8000E8D5030000B583B003468DF8073000F058
:107B900013F80346012B03D00649512006F096FE48
:107BA0009DF807301846FFF7ADFF00BF03B05DF842
:107BB00004FB00BFE8D5030084B0EFF30583019315
:107BC000019BC3F308030393039B002B0DD1EFF339
:107BD00014830093009B0293029B03F00103002B8C
:107BE0000CBF01230023DBB200E00123184604B0E0
:107BF000704782B00190019B03F00303002B0CBF80
:107C000001230023DBB2184602B0704700B585B0EF
:107C10000190002303930EE00B4A039B52F823309C
:107C2000002B05D0084A039B52F82330019898474F
:107C3000039B01330393039B032BEDD900BF00BFCC
:107C400005B05DF804FB00BF9829002082B00190C8
:107C50000091019B1B78013B052B61D801A252F8D2
:107C600023F000BF7D7C0200857C0200AB7C02001B
:107C7000DD7C0200FD7C0200197D0200009B0022D9
:107C80001A704EE0009B01221A70019B1A89009B1A
:107C90009A81019B9A88009BDA81019BDA68009B9C
:107CA0009A60009B00221A743BE0009B02221A702B
:107CB000019B1A89009B9A81019B9A88009BDA811B
:107CC000019BDA68009B9A60019B9B7D062B0CBF91
:107CD00001230023DAB2009B1A7422E0009B0322E6
:107CE0001A70019BDA88009B9A81019B1A89009B7C
:107CF000DA81019BDA68009B9A6012E0009B042203
:107D00001A70019BDA88009B9A81009B0022DA811D
:107D1000009B00229A6004E0009B05221A7000E09C
:107D200000BF00BF02B0704784B001900091019B7A
:107D30000393039A009B9A4206D2039B1B68B3F1FC
:107D4000FF3F01D0012300E0002303F00103DBB279
:107D5000184604B0704782B00190019B5B880333E2
:107D60009B00019A1344184602B0704700B583B0D7
:107D7000019000910198FFF7EEFF0246009B9342AD
:107D800001D202230CE0019B9B884FF6FF729342C5
:107D900003D0019B1B88002B01D1012300E00023AD
:107DA000184603B05DF804FB00B583B00190019B59
:107DB000002B13D00D4BDB681A46019B93420DD369
:107DC0000A4B1B691A46019B934207D80198FFF79B
:107DD00010FF0346002B01D0012300E0002303F035
:107DE0000103DBB2184603B05DF804FB6C220020EF
:107DF00082B00190019B002B04D0019B1B680B4AB1
:107E0000934201D003230DE0019B04331B68084A11
:107E1000934204D0074A934203D1012302E0002396
:107E200000E00323184602B0704700BFDEC0ADDE9D
:107E3000FE011EF1FF011EF184B0019000230393A7
:107E40000CE0039B9B00019A13441B68B3F1FF3FB6
:107E500001D0002307E0039B01330393039BB3F599
:107E6000806FEED30123184604B0704782B00346FA
:107E70000A46ADF806301346ADF80430BDF80620CA
:107E8000134913469B0013449B000B4408331A8884
:107E9000BDF804301344ADF80430BDF806200C4999
:107EA00013469B0013449B000B440A331A88BDF809
:107EB00004301344ADF80430BDF8043040F2FF3212
:107EC000934294BF01230023DBB2184602B07047EF
:107ED000382A002084B0019000910A2303930023E4
:107EE000ADF80A3027E0BDF80A20174913469B0079
:107EF00013449B000B4404331B68009A9A4215D923
:107F0000BDF80A20104913469B0013449B000B4404
:107F100004331B6803F58053009A9A4206D200236B
:107F20000393019BBDF80A201A8008E0BDF80A30CF
:107F30000133ADF80A30BDF80A30012BD3D9039BC9
:107F4000184604B0704700BF382A002000B589B039
:107F5000039002910192039B03F580530693039BC8
:107F600008330393029B02221A80039B079332E09B
:107F700006990798FFF7FAFE03468DF817309DF82B
:107F80001730002B0AD1079B9A68184B1B689A423E
:107F900013D9079B9B68154A13600EE0019B002BC9
:107FA00002D0019B01221A709DF81730022B04D1D8
:107FB000029B4FF480621A8014E0029B1A88079B90
:107FC0005B8813449BB203339AB2029B1A800798D2
:107FD000FFF7C1FE079006990798FFF7A5FE034635
:107FE000002BC5D109B05DF804FB00BFA829002013
:107FF00082B001900091009B9B7D022B09D9019BCF
:108000001A89009BDB8813449BB203339AB2019B0D
:108010001A81019B5A89009BDB88D31A9BB2033BD0
:108020009AB2019B5A8100BF02B0704700B583B07D
:10803000074B1B681946002300930823054A06488E
:1080400002F028F80346184603B05DF804FB00BFB1
:10805000602A002094D603006C22002000B585B071
:1080600003900399002300930823044A044802F074
:1080700011F80346184605B05DF804FB9CD60300D2
:108080006C22002000B585B003460091ADF80630A3
:1080900000238DF80F30BDF806300333ADF80A30F9
:1080A000BDF80A3040F2FD32934201D909234AE07B
:1080B0000023ADF80C303BE0BDF80C2024491346FA
:1080C0009B0013449B000B441B78002B2BD1BDF865
:1080D0000A20BDF80C3011461846FFF7C7FE0346CC
:1080E000002B20D001238DF80F30009BBDF80C2011
:1080F0001A80BDF80C20164913469B0013449B00C0
:108100000B440A331988BDF80C20BDF80A300B4423
:1081100098B20F4913469B0013449B000B440A334B
:1081200002461A8008E0BDF80C300133ADF80C307F
:10813000BDF80C30012BBFD99DF80F30002B01D0BA
:10814000002300E00723184605B05DF804FB00BFDC
:10815000382A002082B003460A46ADF8063013469E
:10816000ADF80430BDF804200D4913469B001344BC
:108170009B000B440A331A88BDF80630D31A9BB211
:10818000BDF80420033B98B2054913469B001344F5
:108190009B000B440A3302461A8000BF02B07047AE
:1081A000382A002008B50121024801F029FE0346C3
:1081B000184608BDA829002000B585B003460091E7
:1081C000ADF80630BDF80620244913469B00134441
:1081D0009B000B4404331B6803F580530293009B00
:1081E0001B680393039B002B04D00398FFF7B3FD98
:1081F000039026E0BDF80620184913469B0013445F
:108200009B000B4404331B680833039319E0029965
:108210000398FFF7ABFD0346022B10D0022B10DCB6
:10822000002B02D0012B05D00BE0009B039A1A60B3
:1082300001230EE00398FFF78EFD039001E0002379
:1082400007E002990398FFF76FFD0346002BDED18C
:108250000023184605B05DF804FB00BF382A002053
:1082600000B585B001900091019B5B681846FFF74F
:108270009BFD0346002B19D0019B1A89244B1B89B7
:108280009A4213D1019B1A68019B5B689B689A42D2
:108290000CD1019B5B6819460098FFF71BFE034653
:1082A000002B0CBF01230023DBB22CE0009B00223B
:1082B0001A8023E00023029310E0029B0393039BA8
:1082C0009A68019B1B689A4208D1029A019B5A60E6
:1082D0000F4B1A89019B1A81012314E0009B1B8814
:1082E00002AA11461846FFF767FF0346002BE4D1A8
:1082F000009B1B8801339AB2009B1A80009B1B884D
:10830000012BD7D90023184605B05DF804FB00BF48
:10831000682A002000B587B0039002910192009373
:10832000304B1B78DBB283F00103DBB2002B01D0B2
:10833000022353E0019B002B02D0009B002B48D16D
:1083400005234BE0009B9B881946274A0B469B0060
:108350000B449B0013441B78002B33D124E0009B7B
:108360001B680593039B002B06D0059B9A88039BF3
:108370001B889A4200D017E0029B002B06D0059B79
:108380001A88029B1B889A4200D00DE0059B9A68D0
:10839000019B1A60009B1A68019B5A60134B1A8953
:1083A000019B1A81002319E0009B9B88009A1146CB
:1083B0001846FFF701FF0346002BD0D1009B002297
:1083C0001A6000E000BF009B9B8801339AB2009BBB
:1083D0009A80009B9B88012BB4D90A23184607B0CA
:1083E0005DF804FB88290020382A0020682A002034
:1083F00000B585B00190084B0199184601F05BFB70
:1084000003901C220021039813F04DFF039B184694
:1084100005B05DF804FB00BF8022002000B583B0EA
:108420000190044B0199184601F05EFB00BF03B0B8
:108430005DF804FB8022002000B583B00190054B5D
:108440000199184601F064FB0346184603B05DF835
:1084500004FB00BF8022002000B583B00190044BD4
:108460000199184601F06DFB00BF03B05DF804FBF5
:108470008022002008B50A4B1B68002B04D1094953
:1084800040F27A2006F022FA0121054801F0D0FCE2
:108490000346002B14BF01230023DBB2184608BD9E
:1084A000902900204CD6030000B587B00023059327
:1084B0000023ADF812300323ADF8103000238DF8FF
:1084C0000F300023ADF80C30F3E0BDF80C301A0388
:1084D000804BDB68134402930298FFF789FC034644
:1084E0008DF807309DF80730032B08D0032B00F3DD
:1084F000DA80002B65D0012B00F09880D3E0029841
:10850000FFF79AFC0346002B3BD0734B1B68002BF4
:1085100029D0BDF81220714913469B0013449B00DB
:108520000B4402221A70BDF812206C4913469B00BE
:1085300013449B000B440433029A1A60BDF81220C6
:10854000664913469B0013449B000B4408330222E8
:108550001A80634ABDF812305380BDF812300133DF
:10856000ADF8123008E05C4A029B13605A4B0222BD
:108570009A8001238DF80F30059B43F0010305938A
:1085800092E0BDF81030013BADF81030BDF812207C
:10859000524913469B0013449B000B440433029A38
:1085A0001A60BDF812204D4913469B0013449B00EE
:1085B0000B4403221A70BDF812300133ADF81230AB
:1085C00072E0BDF81220454913469B0013449B00FE
:1085D0000B4400221A70BDF81220404913469B003C
:1085E00013449B000B440433029A1A60BDF8122016
:1085F00013469B0013449B000833384A9918BDF872
:10860000122013469B0013449B001033334A13443B
:108610001A460298FFF79AFC059B43F00203059364
:10862000BDF812300133ADF812303DE09DF80F3047
:10863000002B25D0BDF81220284913469B00134477
:108640009B000B4402221A70BDF81220224B1968BD
:10865000224813469B0013449B00034404331960D3
:10866000BDF812201D4913469B0013449B000B4488
:10867000083302221A80BDF812300133ADF81230EF
:10868000154A029B1360002216490298FFF75EFC10
:10869000114B9B88022B01D1042300E00823059A8B
:1086A0001343059300E000BFBDF80C300133ADF873
:1086B0000C30BDF80C30022B7FF607AFBDF8103040
:1086C000012B01D800230593059BDBB2184607B0A8
:1086D0005DF804FB6C220020602A0020382A00206C
:1086E000682A0020642A002000B587B00390029118
:1086F000039B02229A750299039B1A1D0023009383
:108700000423074801F0C6FC0590059B002B01D10E
:10871000002300E00E23184607B05DF804FB00BFFD
:108720006C22002000B587B003900291039B1B6967
:10873000002B01D0032200E00122039B9A75029BCB
:1087400008331946039B03F10C0200230093042312
:10875000064801F09FFC0590059B002B01D10023EA
:1087600000E00E23184607B05DF804FB6C220020E1
:1087700000B587B003900291039B1B78032B01D1B6
:10878000052200E00622039B9A75029B04331946DA
:10879000039B03F10802002300930423064801F021
:1087A00079FC0590059B002B01D1002300E00E23EE
:1087B000184607B05DF804FB6C22002000B587B0B6
:1087C00003900B46ADF80A3003990023009304236D
:1087D0000C4A0D4801F05EFC0590059B002B01D072
:1087E0000E230BE0BDF80A20084913469B001344F2
:1087F0009B000B44103301221A700023184607B067
:108800005DF804FBA4D603006C220020382A002067
:1088100000B589B0019002AB00221A605A609A60DC
:10882000019BDB6802930DF1160202AB114618465C
:10883000FFF716FD0346002B12D0039B0693069B01
:108840009A88019BDA80069B1A88019B1A81039BF8
:10885000BDF8162011461846FFF7B0FF079001E05B
:108860000A230793079B184609B05DF804FB000034
:1088700000B587B00190019B981D02AA0D4B002105
:10888000FFF748FD0590059B002B08D1039B094A83
:10889000928811461846FFF791FF059004E00822E0
:1088A0000021044813F0FFFC059B184607B05DF853
:1088B00004FB00BF782A002000B587B00390029126
:1088C000039B01229A75029B0C331846039B1A697D
:1088D000039BDB889B00002100910146064801F0C4
:1088E000D9FB0590059B002B01D1002300E00E234E
:1088F000184607B05DF804FB6C22002082B0184BCC
:108900001B8901339AB2164B1A81154B00225A80EB
:10891000134B00221A730023ADF8063018E0BDF89F
:108920000620104913469B0013449B000B441A7801
:10893000BDF80630002A0CBF01220022D1B2084A3D
:1089400013440A469A72BDF806300133ADF806307A
:10895000BDF80630012BE2D900BF00BF02B070475E
:10896000682A0020382A002084B0019000238DF866
:108970000F300023ADF80C3031E0BDF80C301C4A4C
:1089800013449B7A002B25D0BDF80C30184A1344B1
:1089900000229A72BDF80C20164913469B0013441E
:1089A0009B000B440C331B68002B13D1BDF80C202B
:1089B000104913469B0013449B000B4410331B7853
:1089C000002B07D0019BBDF80C201A8001238DF8E5
:1089D0000F3008E0BDF80C300133ADF80C30BDF8B5
:1089E0000C30012BC9D99DF80F30184604B07047E0
:1089F000682A0020382A002008B5084B05221A7082
:108A0000074B02229A80064B1B681946002301225D
:108A1000044801F017FC0346184608BD682A0020E8
:108A2000602A00206C22002000B583B0164B5B88C2
:108A3000ADF80230BDF80220144913469B001344E0
:108A40009B000B440C331B68002B14D10E4B0422EB
:108A50001A70BDF802200D4913469B0013449B0079
:108A60000B4404331B68194600230122084801F017
:108A7000E9FB019002E0FFF7BFFF0190019B184660
:108A800003B05DF804FB00BF682A0020382A0020EC
:108A90006C22002000B587B0104B5B680593104B2B
:108AA0001A680F4B9B889B0013440493059B5B88BB
:108AB0000333ADF80E30094B03221A700499074BAB
:108AC0005A68BDF80E309B0000200090054801F068
:108AD000E1FA0346184607B05DF804FB682A002057
:108AE000602A00206C22002000B583B00A4B5B880E
:108AF0000A491846FFF760FB0346002B03D0FFF737
:108B0000C9FF019002E0FFF78FFF0190019B18461B
:108B100003B05DF804FB00BF682A00206C2A002027
:108B200008B50A4B06221A70084B5B881946084A9A
:108B30000B469B000B449B00134404331B681846F0
:108B4000FFF78CFA0346184608BD00BF682A0020CC
:108B5000382A002008B5054B07221A70034B002263
:108B60005A60FFF763FA0346184608BD682A0020DA
:108B700008B50D48FFF7F8FE034683F00103DBB2AA
:108B8000002B0BD0094B00221A70084B00225A8090
:108B9000064B00225A6041F61D5302E0FFF7A4FF86
:108BA0000346184608BD00BF6A2A0020682A002034
:108BB00082B0094B5B680193019B5B880333ADF87E
:108BC0000230064B9A88BDF8023013449AB2034B28
:108BD0009A8000BF02B07047682A0020602A0020F7
:108BE00082B0184B1B680193174B5B881946174AD4
:108BF0000B469B000B449B00134404331B68114A33
:108C00001360114B5B881946104A0B469B000B44BE
:108C10009B0013440433019A1A600B4B5B8819467E
:108C2000084B9888094A0B469B000B449B00134451
:108C3000083302461A80034B02229A8000BF02B01A
:108C4000704700BF602A0020682A0020382A0020D0
:108C500008B51A4B1B78072B2CD801A252F823F029
:108C6000818C0200B58C0200B58C02008D8C020054
:108C7000998C0200A58C0200A58C0200AD8C02002C
:108C8000FFF73CFE0D4B01221A7014E0FFF790FF36
:108C90000A4B02221A700EE0FFF7A2FF074B0622D2
:108CA0001A7008E0054B07221A7004E0034B0122FA
:108CB0001A7000E000BF00BF08BD00BF682A002096
:108CC00000B587B0019000910F230593019B002B05
:108CD00004D0624B00225A600123BBE0009B1B7949
:108CE000032B00F2AB8001A252F823F0FD8C0200AE
:108CF0000B8D0200998D0200B98D0200009B0122AC
:108D00001A71FFF793F905909BE000238DF813305B
:108D10000023ADF810302BE0BDF810205049134669
:108D20009B0013449B000B441B78022B1BD1BDF806
:108D300010204B4913469B0013449B000B44002218
:108D40001A7001238DF81330BDF8102044491346E2
:108D50009B0013449B000B4404331B681846FFF729
:108D60007DF9059008E0BDF810300133ADF8103002
:108D7000BDF81030012BCFD99DF8133083F00103DB
:108D8000DBB2002B5CD0354B01221A70334B002232
:108D90005A6041F61D535DE0009B00221A71314B71
:108DA00002229A802F4B1B681946002301222E486D
:108DB00001F048FA059044E0009B00221A71294B0B
:108DC0001B681846FFF74AF90590284B5B88ADF8F9
:108DD0000E30244B1B680293BDF80E202049134629
:108DE0009B0013449B000B4404331B681D4A136013
:108DF000BDF80E201A4913469B0013449B000B44F8
:108E00000433029A1A60BDF80E20164B9888144954
:108E100013469B0013449B000B44083302461A8000
:108E2000104B02229A80BDF80E200D4913469B007C
:108E300013449B000B4400221A7002E000BF00E0C4
:108E400000BF059B002B04D0044B00225A600E2368
:108E500000E00023184607B05DF804FB88290020D5
:108E6000382A0020602A00206C220020682A002076
:108E700000B587B001900091009B9B8A1A4613466B
:108E80009B0013449B003A4A13440493019B002B1C
:108E900005D000990498FFF7ABF8012363E0049B29
:108EA0005A68049B1B899B0013440393009B9B7D82
:108EB000062B4DD801A252F823F000BFFF8E02000E
:108EC000238F02000B8F0200178F0200D98E020041
:108ED0002F8F0200498F0200264B00225A60009B10
:108EE0009B69244A136024492248FFF7B9F90346D5
:108EF00083F00103DBB2002B01D00A2333E0039996
:108F00000098FFF7F1FB059025E003990098FFF723
:108F100009FC05901FE003990098FFF7CDFC059030
:108F200019E003990098FFF723FC059013E0009BDC
:108F300006229A750F4B5B680F4A12881146184635
:108F4000FFF73CFC059006E041F61D53059302E057
:108F50000F23059300BF059B002B03D000990498B5
:108F6000FFF746F8059B184607B05DF804FB00BF05
:108F7000382A0020802A00208C2A002000B585B0E5
:108F800001900091019B002B01D0012326E0009B62
:108F90001B79022B19D0022B1BDC002B02D0012BDA
:108FA00008D016E0009B02221A710098FFF730FCEF
:108FB000039012E00098FFF75BFC0390039B0A2BE1
:108FC0000AD141F61D53039306E041F61D53039366
:108FD00003E00F23039300E000BF039B184605B096
:108FE0005DF804FB00B585B00190019B002B01D01A
:108FF00001233BE01F4B1B7B002B03D01D4B0022AA
:109000001A7301E0FFF724FE1A4B1B78013B062B75
:1090100028D801A252F823F0359002003D900200BA
:10902000459002004D9002006590020055900200AC
:109030005D900200FFF79CFD039016E0FFF754FDE2
:10904000039012E0FFF726FD03900EE0FFF7ECFC23
:1090500003900AE0FFF764FD039006E0FFF77AFD56
:10906000039002E00F23039300BF039B184605B053
:109070005DF804FB682A002000B589B001903F4BE1
:109080001B68002B05D13E48FFF7D6F903463B4A43
:1090900013603A4B1B68002B04D13A4940F28250CE
:1090A00005F014FC354B1B681B78013B052B2CD8B5
:1090B00001A252F823F000BFD1900200E19002001B
:1090C000E1900200F1900200F19002000191020093
:1090D0002A4B1B6819460198FFF7F2FD019017E033
:1090E000264B1B6819460198FFF7C2FE01900FE05E
:1090F000224B1B6819460198FFF740FF019007E0DB
:109100000198FFF76FFF019002E00F23019300BF6A
:10911000019B002B2BD003AB00221A605A609A608F
:10912000DA601A61019B41F61D52934201D0019B06
:1091300000E000230493114B1B6803AA1146184654
:10914000FEF784FD03AB1846FEF760FD0B4B0022D3
:109150001A60002301930A48FFF77EF9FFF78AF9A6
:10916000034683F00103DBB2002B02D187E700BF87
:1091700000E000BF00BF09B05DF804FB902A0020AA
:10918000942A00204CD6030008B50121054800F0C0
:109190001FFE0346002B02D10020FFF76DFF00BF2A
:1091A00008BD00BF9029002000B583B00190019B4D
:1091B0005B681846FFF760FF00BF03B05DF804FB73
:1091C00000B58BB00390029101928DF8033000231B
:1091D000ADF824300023ADF82630514B1B78DBB2BC
:1091E00083F00103DBB2002B01D0022393E0029B4A
:1091F000002B01D105238EE0029B1B884FF6FF72E6
:10920000934203D0029B5B88002B01D1042382E0B0
:10921000029B5B681846FEF7ECFC034683F00103F3
:10922000DBB2002B01D0032375E0019B002B11D191
:10923000029B9B68ADF826300DF11A02BDF826306E
:1092400011461846FEF71EFF0890089B002B09D018
:10925000089B60E0019B1B88ADF81A30019B5B887E
:10926000ADF8263005AB1846FFF7C2F80790079B0C
:10927000002B09D1BDF81A20BDF82630114618463A
:10928000FEF768FF082346E0079B9DF803201A704D
:10929000079B00229A75BDF81A20079B9A82029BB1
:1092A0005A68079B1A61FEF77DFF0246079BDA604A
:1092B000029B1A88079B1A81029B5A88079B9A80F7
:1092C000079BBDF82620DA809DF80330032B06D1DA
:1092D000079B04229A75039B1A68079B9A61079B58
:1092E000BDF824205A8105AB1846FFF797F8039B79
:1092F000002B0DD0039B00225A60079BDA68039B6A
:109300001A60039B00229A72064B1A89039B1A81EA
:10931000FFF73AFF002318460BB05DF804FB00BFCF
:1093200088290020682A002000B585B001900C4BE8
:109330001B68042B02D10C2303930BE0084B1B6822
:109340000849019A41F823200121054800F058FD01
:1093500000230393039B184605B05DF804FB00BF90
:10936000942900209829002084B04FF010235B69D5
:1093700003934FF080531B6902934FF080535B6956
:109380000193039BB3F1FF3F04D1019B029A02FBBF
:1093900003F300E0039B184604B0704700B583B0A8
:1093A0004FF440530193FFF7DFFF0346054A136173
:1093B000044B1A69019BD31A024AD36000BF03B061
:1093C0005DF804FB6C22002008B5FFF7E7FF0022E0
:1093D0000349044800F01AFE0346184608BD00BFC2
:1093E00004D903006C22002008B504481C238C22F9
:1093F000034900F019FB00BF08BD00BF8022002018
:10940000AC29002000B58BB002AB00221A605A6074
:109410009A60DA601A61414B1B78DBB2002B05D0F1
:1094200002AB1846FEF7F2FB002373E03C4800F065
:1094300017FD0346002B01D000236BE0FFF7C4FFAC
:109440000990099B002B01D0099B63E0FFF7CCFF3B
:10945000FFF72AF803468DF823309DF82330062BBA
:1094600007D0062B11DC002B01D0022B0DD10B23D2
:1094700050E02A4B01221A70284B00225A6002AB9E
:109480001846FEF7C3FB002344E000BF01AB1846BB
:10949000FEF7AEFF0790079B002B01D1082339E0B0
:1094A000079B01221A709DF82330013B0A2B29D813
:1094B00001A252F823F000BFE594020005950200D6
:1094C000E594020005950200FD9402000595020056
:1094D000FD94020005950200ED940200F59402004F
:1094E000ED940200079B00221A710CE0079B0322F7
:1094F0001A7108E0079B02221A7104E0079B0122FF
:109500001A7100E000BF01AB1846FEF787FFFFF7B6
:109510003BFE002318460BB05DF804FB88290020B1
:109520008C29002000B585B001900091019B002B93
:1095300002D0009B002B01D1052329E00DF10A0385
:1095400019460198FEF78CFE0346002B1FD0019BA5
:109550005B680393BDF80A301A4613469B00134418
:109560009B0008330C4A134404330121184600F0D1
:1095700047FC009B039A1A60019B5B6803F10C0295
:10958000009B5A60019B01229A72002300E00A238B
:10959000184605B05DF804FB382A002000B585B0F8
:1095A0000190019B002B01D1052339E00DF10A0345
:1095B00019460198FEF754FE0346002B2DD0BDF846
:1095C0000A301946184A0B469B000B449B00134473
:1095D0000C331B68002B1DD0019B9B7A002B19D0EC
:1095E000BDF80A301A46104913469B0013449B00ED
:1095F0000B440C331B68591E0B4813469B00134445
:109600009B0003440C331960019B00229A720023D3
:10961000039304E00623039301E00A230393039BCF
:10962000184605B05DF804FB382A002000B585B067
:1096300001900B46ADF80230134B1B78DBB283F080
:109640000103DBB2002B01D0022319E0019B002BA8
:1096500001D1052314E00DF10A02BDF802301146D4
:109660001846FEF70FFD0390039B002B07D1BDF8B2
:109670000A20019B1A80019BBDF802205A80039B9F
:10968000184605B05DF804FB8829002000B585B0B8
:1096900001901F4B1B78DBB283F00103DBB2002B80
:1096A00001D002232FE0019B002B01D105232AE0EA
:1096B000019B1B88022B01D9042324E0019B1B88FA
:1096C0001A4613469B0013449B00124A134402930C
:1096D000019B5B880233029A5289934210DA019B04
:1096E0005A88019B1B8819461046FEF733FD019BE3
:1096F00000221A80019B00225A800023039301E07C
:1097000004230393039B184605B05DF804FB00BFD8
:1097100088290020382A002000B583B001900091EC
:109720000223002200990198FFF74AFD03461846DC
:1097300003B05DF804FB00B585B00390029101927F
:10974000019B002B01D1052306E00223019A029917
:109750000398FFF735FD0346184605B05DF804FB96
:1097600000B583B001900091019B002B01D105232E
:1097700006E00323002200990198FFF721FD03462C
:10978000184603B05DF804FB00B585B00346ADF89C
:109790000630184B1B78DBB283F00103DBB2002BE1
:1097A00001D0022322E0BDF806304FF6FF7293424B
:1097B00001D104231AE002AB1846FEF719FE03900C
:1097C000039B002B01D1082310E0039B05221A7094
:1097D000039B01221A71039BBDF80620DA8002ABBD
:1097E0001846FEF71BFEFFF7CFFC0023184605B016
:1097F0005DF804FB8829002000B583B0144B1B786A
:10980000DBB283F00103DBB2002B01D002231AE0AC
:109810006B461846FEF7ECFD0190019B002B01D131
:10982000082310E0019B06221A706B461846FEF7CB
:10983000F5FD084B1B78002B02D0064B01221A7352
:10984000FFF7A2FC0023184603B05DF804FB00BF3D
:1098500088290020682A002000B585B00292019373
:109860000346ADF80E300B46ADF80C3003A90DF1F0
:109870000E00019B029AFEF74DFD0346184605B007
:109880005DF804FB00B585B0034602910192ADF886
:109890000E300DF10E01019B029A0020FEF73AFDF9
:1098A0000346184605B05DF804FB00B585B00346D5
:1098B00002910192ADF80E300DF10E00019B029A5B
:1098C0000021FEF727FD0346184605B05DF804FBAE
:1098D00082B001900091019B002B02D0009B002BD5
:1098E00001D1052304E0019B1A68009B1A60002344
:1098F000184602B0704786B001900091019B53E872
:10990000011F8AB2D88902449889824228BF121A5C
:109910001889824202BFBFF32F8F002307E0C2EAFB
:10992000010243E801200028E9D14FF001038DF83E
:109930000F30059002910492029A009B1A609DF8E4
:109940000F30DBB2184606B0704784B00190019921
:1099500051E8013FC3EA034341E80132002AF7D14D
:109960000392029300BF04B0704786B0019000914B
:10997000019B53E8021F1FFAA1F2D888824202BF5E
:10998000BFF32F8F00230DE0D889024498898242CB
:1099900028BF121AC1EA024243E802200028E8D197
:1099A0004FF001038DF80F30059002910492029A56
:1099B000009B1A609DF80F30DBB2184606B0704766
:1099C00084B00190019951E8023FC3EA234341E882
:1099D0000232002AF7D10392029300BF04B070470D
:1099E00086B00190019B53E8021FDA88B1EB314F3A
:1099F0004FF0000017BF89B242EA024241EA024238
:109A000004E05968B1EB314F08BF012043E802215F
:109A10000029E8D18DF80F00059104929DF80F30D0
:109A2000DBB2184606B0704784B00390029111462D
:109A30001A460B46ADF806301346ADF80430029BCB
:109A4000002B01D10E231FE0BDF80630BDF8042025
:109A5000B3FBF2F102FB01F29B1A9BB2002B01D087
:109A6000092311E0039B029A1A60039B00225A60AB
:109A7000039B00229A60039BBDF806209A81039BFA
:109A8000BDF80420DA810023184604B0704700B501
:109A900085B001900198FFF7A3FF03468DF80F30C2
:109AA0009DF80F30002B01D0002300E01123184651
:109AB00005B05DF804FB00B585B001900091009BF6
:109AC00019460198FFF717FF0346002B07D0019BAB
:109AD0001B68009A128813440393039B00E0002341
:109AE000184605B05DF804FB00B583B00190009105
:109AF000009B1A88009B5B889A4204D10198FFF76B
:109B000024FF012300E00023184603B05DF804FBA6
:109B100000B585B001900091009B19460198FFF7B0
:109B200024FF0346002B07D0019B1B68009A528834
:109B300013440393039B00E00023184605B05DF82F
:109B400004FB00B583B001900091009B1A88009B34
:109B50005B889A4204D10198FFF732FF012300E0AD
:109B60000023184603B05DF804FB00B585B00190F2
:109B70000091009B5B099B00019A1A44009B03F033
:109B80001F03012101FA03F31946104600F0D8F82B
:109B9000039000BF05B05DF804FB00B583B00190F1
:109BA0000091009B5B099B00019A1A44009B03F003
:109BB0001F03012101FA03F31946104600F0A8F82B
:109BC0000246009B03F01F0322FA03F303F0010394
:109BD000002B14BF01230023DBB2184603B05DF84D
:109BE00004FB00B585B001900091009B5B099B00D0
:109BF000019A1A44009B03F01F03012101FA03F3A9
:109C0000DB431946104600F0CBF8039000BF05B0C7
:109C10005DF804FB82B001900091009B5B099B0002
:109C2000019A13441A68009B03F01F0322FA03F3FE
:109C300003F00103002B14BF01230023DBB21846FD
:109C400002B0704700B58BB00190009100230993DA
:109C50003BE0099B9B00019A13441B68DB4306937E
:109C6000069B93FAA3F30593059BB3FA83F308933A
:109C700023E0099B5B01089A13440793079A009B12
:109C80009A421ED207990198FFF787FF034683F097
:109C90000103DBB2002B01D0079B1EE0099B9B0058
:109CA000019A13441B68DB430493049B93FAA3F3C8
:109CB0000393039BB3FA83F30893089B1F2BD8D914
:109CC00000E000BF099B01330993009B013B5B0946
:109CD0000133099A9A42BCD3009B18460BB05DF839
:109CE00004FB10B487B001900091019B009A53E8E7
:109CF000004F104643E8000191F0000FF7D10594A2
:109D000004900391059B184607B05DF8044B70471B
:109D100010B487B001900091019B009A53E8004F66
:109D200044EA020043E8000191F0000FF6D10594E7
:109D300004900391059B184607B05DF8044B7047EB
:109D400010B487B001900091019B009A53E8004F36
:109D500044EA020043E8000191F0000FF6D10594B7
:109D600004900391049B184607B05DF8044B7047BC
:109D700010B487B001900091019B009A53E8004F06
:109D800004EA020043E8000191F0000FF6D10594C7
:109D900004900391059B184607B05DF8044B70478B
:109DA00010B487B001900091019B009A53E8004FD6
:109DB00004EA020043E8000191F0000FF6D1059497
:109DC00004900391049B184607B05DF8044B70475C
:109DD00010B487B001900091019B009A53E8004FA6
:109DE00004EB020043E8000191F0000FF6D1059466
:109DF00004900391059B184607B05DF8044B70472B
:109E000010B487B001900091019B009A53E8004F75
:109E100004EB020043E8000191F0000FF6D1059435
:109E200004900391049B184607B05DF8044B7047FB
:109E300010B487B001900091019B009A53E8004F45
:109E4000A4EB020043E8000191F0000FF6D1059465
:109E500004900391049B184607B05DF8044B7047CB
:109E600000B583B0019001210198FFF751FF03462F
:109E7000184603B05DF804FB00B583B001900121E2
:109E80000198FFF75DFF0346184603B05DF804FB39
:109E900000B583B0019000210198FFF769FF0346E8
:109EA000184603B05DF804FB00B583B001900B4683
:109EB0008DF80330019B002B03D10849E82004F002
:109EC00005FD019BDA689DF803300199898A01FB41
:109ED00003F31344184603B05DF804FBA8D603004F
:109EE00000B583B001900091019B002B03D108497C
:109EF000F52004F0EBFC009B019AD2689B1A019AB2
:109F0000928AB3FBF2F3DBB2184603B05DF804FBB0
:109F1000A8D6030000B585B00190019B002B04D1A9
:109F20001F494FF4927004F0D1FC002303930023E7
:109F30008DF80A300DF10A031846FDF70DFE019B5E
:109F40001B681A68019B5B689A421FD9019B1B68BA
:109F50001A68013A1A601B681B7819460198FFF7C6
:109F6000A3FF0390019B9A68019B1B681B68D31A8F
:109F70008DF80B30019B1B681B799DF80B209A42D2
:109F800004D9019B1B689DF80B201A719DF80A30BB
:109F90001846FDF7F7FD039B184605B05DF804FB76
:109FA000A8D6030010B584B001900091019B002B4E
:109FB00004D1154940F2471004F088FC009B002BA7
:109FC00004D111494FF4A47004F080FC009B03936A
:109FD00000238DF80B300DF10B031846FDF7BCFD87
:109FE000019B1B681C68621C1A6003990198FFF7AB
:109FF00077FF034623709DF80B301846FDF7C2FD2E
:10A0000000BF04B010BD00BFA8D6030000B587B0E4
:10A01000059004910392059B002B0FD1184B1B88D0
:10A020001B0443F001031846164A17490E230093F8
:10A030000B461649FCF70FFC0E231CE0049B002B7B
:10A040000FD10F4B1B881B0443F001031846104A25
:10A050000D490E2300930B460C49FCF7FCFB0E2325
:10A0600009E0059B049A1A60059B1B681B6803990D
:10A07000059898470346184607B05DF804FB00BFF3
:10A080005822002008D70300ACD8030010D70300E3
:10A090003CD7030010B586B005900491039202935B
:10A0A000059B002B0FD15C4B1B881B0443F0010365
:10A0B00018465A4A5A490E2300930B465949FCF751
:10A0C000CAFB0E23A4E0039B002B0FD1524B1B882D
:10A0D0001B0443F001031846534A51490E230093D1
:10A0E0000B465049FCF7B7FB0E2391E0059B1B681C
:10A0F000002B0FD1484B1B881B0443F0010318466B
:10A100004A4A4749082300930B464649FCF7A3FBFC
:10A1100008237DE0029B002B0FD13F4B1B881B04C3
:10A1200043F001031846424A3D49092300930B4678
:10A130003C49FCF790FB09236AE0059B5B685A6881
:10A14000029BB3FBF2F102FB01F29B1A002B0FD032
:10A15000314B1B881B0443F001031846354A304934
:10A16000092300930B462F49FCF775FB09234FE0A9
:10A17000049800F057F90346002B0FD1264B1B889B
:10A180001B0443F0010318462B4A25491023009372
:10A190000B462449FCF75FFB102339E0039B18466C
:10A1A00000F040F90346002B0FD11B4B1B881B040A
:10A1B00043F001031846214A1949102300930B4626
:10A1C0001849FCF748FB102322E0029A04990598ED
:10A1D00000F00EF90346002B0FD10F4B1B881B0418
:10A1E00043F001031846164A0D49102300930B460D
:10A1F0000C49FCF730FB10230AE0059B1B68DC6868
:10A20000089B0093029B039A04990598A047034674
:10A21000184606B010BD00BF5822002008D7030022
:10A22000C0D8030010D703009CD7030044D7030015
:10A2300058D70300A4D70300D0D70300E8D7030002
:10A240000CD8030010B586B00590049103920293D8
:10A25000059B002B0FD13C4B1B881B0443F00103D3
:10A2600018463A4A3A490E2300930B463949FCF7FF
:10A27000F2FA0E2364E0059B1B68002B0FD1324BD2
:10A280001B881B0443F001031846334A3049082356
:10A2900000930B462F49FCF7DEFA082350E0039B9E
:10A2A000002B0FD1284B1B881B0443F001031846D9
:10A2B0002A4A2749092300930B462649FCF7CBFA83
:10A2C00009233DE00499059800F0B9F80346002BF6
:10A2D0000FD11D4B1B881B0443F001031846204A75
:10A2E0001B49102300930B461A49FCF7B4FA1023BC
:10A2F00026E0059B5B681B68039A02FB03F31A4682
:10A300000499059800F074F80346002B0FD10E4B0A
:10A310001B881B0443F001031846124A0C49102302
:10A3200000930B460B49FCF796FA102308E0059BB7
:10A330001B681C69029B039A04990598A047034671
:10A34000184606B010BD00BF5822002008D70300F1
:10A35000D4D8030010D7030044D7030058D7030014
:10A3600034D803005CD8030000B585B00190019B90
:10A37000002B03D0019B1B68002B28D100230393E3
:10A3800019E0039A13469B0013449B001A46154B91
:10A3900013440193019B1B68002B09D0019B1B6890
:10A3A000DB69019898470346002B01D0012314E094
:10A3B000039B013303930C4A0A4BD31A0B4AA2FBAB
:10A3C00003231B09039A9A42DBD3002305E0019B78
:10A3D0001B68DB69019898470346184605B05DF88D
:10A3E00004FB00BF6C22002080220020CDCCCCCC0E
:10A3F00084B0039002910192039BDB68029A9A4217
:10A4000009D3029A019B13445A1E039B1B699A426B
:10A4100001D8012300E0002303F00103DBB218465A
:10A4200004B0704782B00190019B03F00303002B3E
:10A430000CBF01230023DBB2184602B0704782B084
:10A4400001900091019B5B681B685A1E009B1340A2
:10A45000002B0CBF01230023DBB2184602B070476B
:10A4600029DF704700BF184628DF704700BF184635
:10A4700000B589B001900091019B1B689B68002B7F
:10A4800035D002AB00221A605A609A60DA601A6115
:10A490005A61009B0393019B9B680793019B1B7967
:10A4A000002B02D0012B0DD01AE001238DF80830CB
:10A4B000019B1B690493019BDB680593019B5B690E
:10A4C00006930DE002238DF80830019BDB684FF402
:10A4D000805202FB03F30493019B5B69069300BF68
:10A4E000019B1B689B6802AA1046984700E000BFCA
:10A4F00009B05DF804FB00B587B00190019B5A6973
:10A50000019B9B69D31AB3F5805F28BF4FF480533A
:10A5100005930422059BB3FBF2F3012B38BF012303
:10A520000593019B1A69019B9B6913440493019B4A
:10A53000DB681A46019B9B6913440393059A0399B0
:10A540000498FFF78DFF0346184607B05DF804FB3B
:10A5500000B583B00190019BDA68019B1B6913442D
:10A560001846FFF781FF0346184603B05DF804FB69
:10A5700008B5034B03491846FFF7E3FA00BF08BDCF
:10A58000942200203C2B002008B5084B08491846AF
:10A59000FFF7BEFA0346074A1360064B1B68002B01
:10A5A00014BF01230023DBB2184608BD942200200B
:10A5B0003C2B0020382B002000B583B02A4B1B7A9F
:10A5C000002B0BD1FFF7E0FF034683F00103DBB262
:10A5D000002B03D0244B00225A6042E0224B02227F
:10A5E0001A72224B1B681B79002B02D0012B07D05B
:10A5F0000DE01E4B1B681846FFF77DFF019009E038
:10A600001A4B1B681846FFF7A3FF019002E00323D3
:10A61000019300BF019B002B03D0019B112B0CD099
:10A620000FE0114B1B7C83F00103DBB2002B17D032
:10A630000021022000F060F912E00B4B01221A7297
:10A640000FE00A4B1B6803211846FFF711FF064B6A
:10A6500000221A72044B00225A60FFF789FF00E0C3
:10A6600000BF03B05DF804FB242B0020382B002032
:10A6700008B50848FFF7F4FB0346002B08D1064B4A
:10A680005B7C83F00103DBB2002B01D0FFF794FF6A
:10A6900000BF08BD282B0020242B002084B001908F
:10A6A0001B4B0022DA60019B1B79002B02D0012B8F
:10A6B00019D028E0019B5A69019B9B69D31AB3F515
:10A6C000805F28BF4FF480530393019B9A69039BDB
:10A6D0001A44019B9A61019B9A69019B5B699A42AA
:10A6E0000ED1012310E0019B1B695A1C019B1A61CA
:10A6F000019B1A69019B5B699A4203D1012303E024
:10A7000000BF00E000BF0023184604B0704700BF40
:10A71000242B002082B00190084BDB680133074AEC
:10A72000D360064BDB68082B04D9044B0022DA60A7
:10A73000012300E00023184602B07047242B0020BC
:10A7400000B583B001900091019B0C4A5A600C48FF
:10A75000FFF786FB0346002B0BD111F04BF90346A4
:10A760001A46074B1A7407481C238C220649FFF728
:10A770005BF90023184603B05DF804FBE8D803003A
:10A78000242B002094220020982A002000B583B0BA
:10A790000190009114220021054811F084FD054B21
:10A7A0001846FFF774F90023184603B05DF804FB60
:10A7B000242B00209422002000B587B00390029142
:10A7C00001920093174A04AB19461046FFF773F93C
:10A7D0000590059B002B01D104231FE01C220021C2
:10A7E000059811F060FD059B00221A71059B039AE4
:10A7F0001A60059B089A9A60059B029A1A61059B4C
:10A80000019ADA60059B009A5A61064A04AB194620
:10A810001046FFF769F9FFF72BFF0023184607B032
:10A820005DF804FB9422002000B585B003900291EE
:10A8300001920093029B009A1946019811F00AFDBB
:10A840000023184605B05DF804FB000000B587B092
:10A850000390029101920093184A04AB19461046E6
:10A86000FFF729F90590059B002B01D1042320E077
:10A870001C220021059811F016FD059B01221A717A
:10A88000059B039A1A60059B009A9A604FF48052C8
:10A89000029BB3FBF2F2059BDA60059B019A5A61B9
:10A8A000064A04AB19461046FFF71EF9FFF7E0FE13
:10A8B0000023184607B05DF804FB00BF9422002077
:10A8C00082B001900091009B184602B0704782B0A0
:10A8D000019000910023184602B0704782B00190A9
:10A8E000044B1B7A002B14BF01230023DBB2184654
:10A8F00002B07047242B002000B585B00190009174
:10A90000019B022B02D0019B032B48D1274B1B7AC2
:10A91000022B05D0022B35DC002B42D0012B31E07D
:10A9200000238DF80F30019B022B03D0019B032BDA
:10A9300009D011E01E4B1B681846FFF7AFFE034617
:10A940008DF80F3008E01A4B1B681846FFF7E2FE3F
:10A9500003468DF80F3000BF9DF80F30002B10D04C
:10A96000124B00221A72124B1A68019B022B01D162
:10A97000002300E00D2319461046FFF779FDFFF78D
:10A98000F7FD00BF094B5B7C83F00103DBB2002BBA
:10A9900002D0FFF711FE05E011F010F802E000BF51
:10A9A00000E000BF05B05DF804FB00BF242B0020D1
:10A9B000382B002082B0034600918DF80730064BFB
:10A9C00001225A74044B1B7A002B0CBF0123002375
:10A9D000DBB2184602B07047242B002000B583B0CC
:10A9E000034600918DF807309DF80730012B03D006
:10A9F0009DF80730032B0DD1084B00225A749DF8A7
:10AA00000730012B0CBF01230023DAB2034B1A7469
:10AA1000FFF7D2FD00BF03B05DF804FB242B00203C
:10AA200000B58BB001900091019B9B8A043B07937A
:10AA3000009A079B1344DA1C079BB2FBF3F38DF8D3
:10AA40001B300198FFF766FA0590059B002B01D19A
:10AA5000002338E0059B00221A71059B01225A71E0
:10AA6000079B9AB2059BDA80059B09939DF81B30E2
:10AA7000013B0493099B019A1A60002308931DE08F
:10AA80000198FFF747FA0390039B002B0ED0059B1C
:10AA90005B790133DAB2059B5A71099B039A1A60FC
:10AAA000039B019A1A60039B099304E0059800F048
:10AAB0000EF8002307E0089B01330893089A049BD3
:10AAC0009A42DDD3059B18460BB05DF804FB00B538
:10AAD0008BB00190019B0793079B5B798DF81B302E
:10AAE000019B08939DF81B30013B059300230993BC
:10AAF00005E0089B1B680893099B01330993099A99
:10AB0000059B9A42F5D3089B1B680493019B08930D
:10AB1000002309930BE0089B1B6803930899049892
:10AB2000FFF740FA039B0893099B013309939DF8B3
:10AB30001B30099A9A42EED300BF00BF0BB05DF8FC
:10AB400004FB00B585B00190019B0393039B043384
:10AB500001211846FFF754F900BF05B05DF804FB6A
:10AB600000B587B00190019B0593059B043301213B
:10AB70001846FFF75DF90346039303AB0493049B68
:10AB80001B78002B02D10198FFF7A1FF00BF07B08F
:10AB90005DF804FB00B58DB0039002910192009323
:10ABA000039B0693069BDB880593039B0B93009BFB
:10ABB0001A1D059BB2FBF3F30A93009B0433059A1D
:10ABC000B3FBF2F2059901FB02F29B1A0993009A7A
:10ABD000019B1A44059B1344DA1C059BB2FBF3F35B
:10ABE0008DF81330069B5B799DF813209A420AD9A1
:10ABF0002849BA2003F06AFE05E00B9B1B680B9303
:10AC00000A9B013B0A930A9B002BF6D10023089371
:10AC1000059A099BD31A0793079A019B934228BF71
:10AC2000134607932DE09DF83830002B0BD0029A85
:10AC3000089BD0180B9A099B13440433079A1946B2
:10AC400011F008FB0AE00B9A099B1344181D029AA5
:10AC5000089B1344079A194611F0FCFA0023099344
:10AC60000B9B1B680B93019A079BD31A0193089ABD
:10AC7000079B13440893059A019B934228BF1346F0
:10AC80000793019B002BCED100BF00BF0DB05DF834
:10AC900004FB00BF24D9030000B587B005900491E0
:10ACA0000392029300230093029B039A0499059850
:10ACB000FFF770FF00BF07B05DF804FB00B583B07D
:10ACC0000190019B002B03D10649722003F0FEFD89
:10ACD000019B00221A60BFF35F8F00BF00BF03B06B
:10ACE0005DF804FBD4D9030008B5064B00221A70A6
:10ACF0000548FFF7E3FF0549054800F00BF800237E
:10AD0000184608BD442B0020402B00206CDA0300BD
:10AD1000482B002000B583B001900091019B002BCF
:10AD200003D11049502003F0D1FD009B002B03D12B
:10AD30000C49512003F0CAFD019B009A1A60019B47
:10AD40001B681A68019B5A60019B5A68019B1B682B
:10AD50005B689A4202D1019B00225A6000BF03B097
:10AD60005DF804FB78DA030000B583B00190019B25
:10AD7000002B03D11449632003F0A8FD019B1B683D
:10AD8000002B03D11049642003F0A0FD019B5B68F8
:10AD9000002B14D0019B5B681A46019B1B689B68C3
:10ADA00013441A46019B5A60019B5A68019B1B6819
:10ADB0005B689A4204D1019B00225A6000E000BF08
:10ADC00003B05DF804FB00BF78DA030000B585B07E
:10ADD0000190019800F00EF80390039B002B01D026
:10ADE000039B00E0024B184605B05DF804FB00BF72
:10ADF000E0DA030086B00190164B0593164B0493DE
:10AE00001FE0049A059BD31ADB10DA0F13445B1082
:10AE1000DB00059A13440393039B1B680293029A79
:10AE2000019B9A4202D9039B04930AE0029A019B78
:10AE30009A4203D2039B0833059302E0039B5B68AD
:10AE400004E0059A049B9A42DBD30023184606B01F
:10AE5000704700BFE0DE030008E00300BFF34F8F40
:10AE600000BF074BDB6803F4E0620549054B134361
:10AE7000CB60BFF34F8F00BF00BF00BFFCE700BF38
:10AE800000ED00E00400FA05024B034A1A6000BF1F
:10AE9000704700BFA82200200090D00308B500F042
:10AEA00097F90346002B06D0B74B1B681B0AB74A1D
:10AEB00003F01F03136000F0B7F90346002B02D024
:10AEC000B34BB44A1A6000F0CBF90346002B06D00E
:10AED000B14B1B685B0BB14A03F00703136000F032
:10AEE000EBF90346002B05D0AD4BDB68AC4A23F0F1
:10AEF0008073D36000F0FCF90346002B0ED04FF0B6
:10AF000080430022C3F80C214FF080430022C3F895
:10AF100010214FF080430022C3F8382500F014FAC6
:10AF20000346002B02D09F4B03221A6000F028FA40
:10AF30000346002B0BD09C4B05221A609B4B012231
:10AF40001A609B4B00221A609A4B3F221A6000F055
:10AF500033FA0346002B76D04FF08053964AD3F84D
:10AF60000434C2F820354FF08053934AD3F80834A4
:10AF7000C2F824354FF080538F4AD3F80C34C2F80E
:10AF800028354FF080538C4AD3F81034C2F82C3552
:10AF90004FF08053884AD3F81434C2F830354FF05C
:10AFA0008053854AD3F81834C2F834354FF08053B3
:10AFB000814AD3F81C34C2F840354FF080537E4AA2
:10AFC000D3F82034C2F844354FF080537A4AD3F88E
:10AFD0002434C2F848354FF08053774AD3F82834E8
:10AFE000C2F84C354FF08053734AD3F82C34C2F872
:10AFF00050354FF08053704AD3F83034C2F854358E
:10B000004FF080536C4AD3F83434C2F860354FF0B7
:10B010008053694AD3F83834C2F864354FF080530E
:10B02000654AD3F83C34C2F868354FF08053624A21
:10B03000D3F84034C2F86C354FF080535E4AD3F8F1
:10B040004434C2F8703500F0D3F90346002B05D024
:10B050005A4B1B685A4A03F04F03136000F0F4F98F
:10B060000346002B0DD04FF08043D3F8003403F09B
:10B070000103002B05D04FF080436FF00102C3F8AD
:10B08000002400F00DFA0346002B05D04D4B1B6841
:10B090004C4A43F4806313604B4BD3F888304A4AE0
:10B0A00043F47003C2F88830BFF34F8F00BFBFF383
:10B0B0006F8F00BF4FF01023D3F80C3203F0010361
:10B0C000012B25D1414B0122C3F8042500BF3F4B82
:10B0D000D3F80034002BFAD04FF01023D3F80C3201
:10B0E0004FF0102223F00103C2F80C3200BF374B9F
:10B0F000D3F80034002BFAD0344B0022C3F80425D7
:10B1000000BF324BD3F80034002BFAD0FFF7A6FE75
:10B110004FF01023D3F80032002B05DB4FF0102343
:10B12000D3F80432002B2BDA284B0122C3F8042574
:10B1300000BF264BD3F80034002BFAD04FF0102379
:10B140001522C3F8002200BF204BD3F80034002B97
:10B15000FAD04FF010231522C3F8042200BF1B4B76
:10B16000D3F80034002BFAD0184B0022C3F8042582
:10B1700000BF164BD3F80034002BFAD0FFF76EFE59
:10B18000FFF782FE00BF08BD2403001040350140D8
:10B1900074C007400DF0ADBA440200103C050040F9
:10B1A000F0ED00E0A0050040105600408856004039
:10B1B000185600401456004000C0004058020010CD
:10B1C000E40E00403C17004000ED00E000E00140CC
:10B1D000124B1B68DBB2062B1DD1114B1B6803F011
:10B1E0000F03002B17D10F4B1B6803F0F003302B1C
:10B1F00001D1012310E00B4B1B6803F0F003402B3F
:10B2000001D1012308E0074B1B6803F0F003502B2A
:10B2100001D1012300E0002318467047E00F00F041
:10B22000E40F00F0E80F00F00A4B1B68DBB2062BBE
:10B230000DD1094B1B6803F00F03002B07D1074BFF
:10B240001B6803F0F003302B01D1012300E0002341
:10B2500018467047E00F00F0E40F00F0E80F00F030
:10B26000124B1B68DBB2062B1DD1114B1B6803F080
:10B270000F03002B17D10F4B1B6803F0F003302B8B
:10B2800001D1012310E00B4B1B6803F0F003402BAE
:10B2900001D1012308E0074B1B6803F0F003502B9A
:10B2A00001D1012300E0002318467047E00F00F0B1
:10B2B000E40F00F0E80F00F00A4B1B68DBB2062B2E
:10B2C0000DD1094B1B6803F00F03002B07D1074B6F
:10B2D0001B6803F0F003302B01D1012300E00023B1
:10B2E00018467047E00F00F0E40F00F0E80F00F0A0
:10B2F000124B1B68DBB2062B1DD1114B1B6803F0F0
:10B300000F03002B17D10F4B1B6803F0F003302BFA
:10B3100001D1012310E00B4B1B6803F0F003402B1D
:10B3200001D1012308E0074B1B6803F0F003502B09
:10B3300001D1012300E0002318467047E00F00F020
:10B34000E40F00F0E80F00F00A4B1B68DBB2062B9D
:10B350000DD1094B1B6803F00F03002B07D1074BDE
:10B360001B6803F0F003302B01D1012300E0002320
:10B3700018467047E00F00F0E40F00F0E80F00F00F
:10B380000A4B1B68DBB2062B0DD1094B1B6803F07F
:10B390000F03002B07D1074B1B6803F0F003302B82
:10B3A00001D1012300E0002318467047E00F00F0B0
:10B3B000E40F00F0E80F00F00A4B1B68DBB2062B2D
:10B3C0000DD1094B1B6803F00F03002B07D1074B6E
:10B3D0001B6803F0F003502B01D1012300E0002390
:10B3E00018467047E00F00F0E40F00F0E80F00F09F
:10B3F000124B1B68DBB2062B1DD1114B1B6803F0EF
:10B400000F03002B17D10F4B1B6803F0F003302BF9
:10B4100001D1012310E00B4B1B6803F0F003402B1C
:10B4200001D1012308E0074B1B6803F0F003502B08
:10B4300001D1012300E0002318467047E00F00F01F
:10B44000E40F00F0E80F00F0124B1B68DBB2062B94
:10B450001DD1114B1B6803F00F03002B17D10F4BAD
:10B460001B6803F0F003302B01D1012310E00B4BDC
:10B470001B6803F0F003402B01D1012308E0074BC8
:10B480001B6803F0F003502B01D1012300E00023DF
:10B4900018467047E00F00F0E40F00F0E80F00F0EE
:10B4A000064B1B68062B05D1054B1B68062B01D1EB
:10B4B000012300E000231846704700BF3001001050
:10B4C0003401001000B583B00190019B1B681F2B55
:10B4D00004D9054940F2C71003F0F8F94FF0A04332
:10B4E000184603B05DF804FB08E0030000B585B022
:10B4F000019001AB1846FFF7E5FF0390019B012285
:10B5000002FA03F31946039800F069F800BF05B08A
:10B510005DF804FB00B585B0019001AB1846FFF75C
:10B52000D1FF0390019B012202FA03F3194603980D
:10B5300000F05FF800BF05B05DF804FB00B585B012
:10B54000019001AB1846FFF7BDFF0390039BD3F8B2
:10B5500004350293029BDA43019B012101FA03F3B4
:10B560001A40039BC3F80825019B01229A40029BC5
:10B570001A40039BC3F80C2500BF05B05DF804FB1F
:10B5800000B583B001900091009B002B03D101987E
:10B59000FFF7C0FF02E00198FFF7A8FF00BF03B06C
:10B5A0005DF804FB00B585B0019001AB1846FFF7CC
:10B5B00089FF0390039800F00AF80246019B22FAE3
:10B5C00003F303F00103184605B05DF804FB82B0F5
:10B5D0000190019BD3F80435184602B0704782B041
:10B5E00001900091019B009AC3F8082500BF02B0AA
:10B5F000704782B001900091019B009AC3F80C251E
:10B6000000BF02B07047000000B585B00190019BFB
:10B61000032B03D911493A2003F058F9104A019B32
:10B6200013441B781846FFF7BDFF0346002B14BFD9
:10B63000012300238DF80F309DF80F30002B14BF2D
:10B6400001230023DBB283F00103DBB203F001032B
:10B65000DBB2184605B05DF804FB00BF38E003001C
:10B660007CE0030000B583B00190019B032B03D95C
:10B670000749412003F02AF9064A019B13441B782D
:10B6800000211846FFF77CFF00BF03B05DF804FB04
:10B6900038E003007CE0030000B583B00190019B1B
:10B6A000032B03D90749472003F010F9064A019BF1
:10B6B00013441B7801211846FFF762FF00BF03B057
:10B6C0005DF804FB38E003007CE0030000B583B0C4
:10B6D0000023019305E00198FFF7DEFF019B013392
:10B6E0000193019B032BF6D900BF00BF03B05DF8A7
:10B6F00004FB00B583B00023019305E00198FFF738
:10B70000B1FF019B01330193019B032BF6D900BFCD
:10B7100000BF03B05DF804FB00B583B00190019B4E
:10B72000032B03D907495F2003F0D0F8064A019B99
:10B7300013441B781846FFF701FF00BF03B05DF804
:10B7400004FB00BF38E003007CE0030000B583B0D9
:10B750000190019B032B03D90549CB2003F0B6F8D8
:10B76000044A019B13441B78184603B05DF804FBA0
:10B7700038E0030080E0030082B003468DF8073014
:10B780009DF8073003F01F0206499DF907305B0959
:10B79000012000FA02F2203341F8232000BF02B05A
:10B7A000704700BF00E100E008B510F023F9034640
:10B7B00083F00103DBB2002B03D10549792003F0AC
:10B7C00085F800F091FA034B00229A7000BF08BD83
:10B7D0008CE00300502B002000B583B000230193C0
:10B7E000144B1B78002B02D0852301931CE0114BD6
:10B7F00000229A600F4B00225A600E4B00221A6101
:10B800000C4B0022DA600C4800F032FA019010F084
:10B81000F1F8034683F00103DBB2002B01D000F006
:10B820004FFA044B01221A70019B184603B05DF8D1
:10B8300004FB00BF502B002011B9020084B001901E
:10B84000019B1B680393039B002B03D0039B1A6887
:10B85000019B1A60039B184604B0704700B583B083
:10B86000164B1B78002B04D115494FF4847003F05C
:10B870002DF8124BDB68002B04D1114940F209105E
:10B8800003F024F800238DF807300DF10703184664
:10B89000FCF762F9094BDB68013B084AD360074BB0
:10B8A000DB68002B01D1FFF77FFF9DF807301846BA
:10B8B000FCF768F900BF03B05DF804FB502B0020D3
:10B8C0008CE0030000B585B003468DF807309DF885
:10B8D0000730002B02D10C4B039301E00B4B039379
:10B8E0000398FFF7ABFF0290029B002B06D0029B50
:10B8F0005B689DF8072010469847F1E700BF00BF3E
:10B9000005B05DF804FB00BF582B0020602B002021
:10B9100000B583B003468DF807309DF80730002B43
:10B9200005D10A4B01225A700020FFF7CBFF9DF88A
:10B930000730012B05D1054B01229A700120FFF73A
:10B94000C1FF00BF03B05DF804FB00BF502B002017
:10B9500000B583B001900091019B002B05D1054BF0
:10B9600001225A700020FFF7ADFF00BF03B05DF861
:10B9700004FB00BF502B002000B585B003460091AA
:10B980008DF807309DF80730032B29D0032B35DCC9
:10B99000002B02D0012B04D030E00020FFF7ECFE9A
:10B9A0002DE000238DF80F300DF10F031846FCF742
:10B9B000D3F8154B1B7883F00103DBB2002B01D0C9
:10B9C000FFF70AFF104BDB6801330F4AD3600E4BC1
:10B9D00001229A709DF80F301846FCF7D3F80EE05C
:10B9E000094B1B78002B04D1084940F2432002F098
:10B9F0006DFF00F065F9FFF731FF00E000BF00BF09
:10BA000005B05DF804FB00BF502B00208CE0030064
:10BA100082B003468DF807309DF8073003F01F020F
:10BA200005499DF907305B09012000FA02F241F84F
:10BA3000232000BF02B0704700E100E082B003465F
:10BA40008DF807309DF8073003F01F0206499DF975
:10BA500007305B09012000FA02F2603341F823202D
:10BA600000BF02B0704700BF00E100E082B00346B3
:10BA700000918DF807309DF90730002B0CDA009B00
:10BA8000DAB20C499DF8073003F00F03043B520172
:10BA9000D2B20B441A7609E0009BDAB206499DF94E
:10BAA00007305201D2B20B4483F8002300BF02B02A
:10BAB000704700BF00ED00E000E100E000B583B09A
:10BAC00003460A468DF8073013468DF806309DF878
